:100000000C9463000C948B000C948B000C94800374
:100010000C94A1020C9465010C948B000C948B0041
:100020000C948B000C948B000C948B000C948B0024
:100030000C948B000C948B000C948B000C948B0014
:100040000C940F050C948B000C9413070C9461070F
:100050000C948B000C948B000C948B000C948B00F4
:100060000C948B000C948B000000000024002700EF
:100070002A0000000000250028002B0000000000DE
:1000800023002600290004040404040404040202DA
:100090000202020203030303030301020408102007
:1000A0004080010204081020010204081020000012
:1000B0000007000201000003040600000000000029
:1000C00000008D00CD0811241FBECFEFD8E0DEBFA9
:1000D000CDBF11E0A0E0B1E0ECE0F3E102C005909B
:1000E0000D92A431B107D9F712E0A4E1B1E001C04B
:1000F0001D92AD33B107E1F710E0C6ECD0E004C0CB
:100100002297FE010E948009C23CD107C9F70E94D4
:1001100023090C9484090C94000084E191E00E946E
:10012000A904089580911501909116010497C4F4D3
:1001300084E191E06FE770E00E945E0468EE73E096
:1001400080E090E00E948B0584E191E06FE770E031
:100150000E943A046CEB72E080E090E00E948B0514
:10016000809115019091160101969093160180934C
:100170001501049724F084E191E00E949E04089503
:100180008BE192E040E855E260E070E00E949C075D
:100190000895EF92FF920F931F93A82FB0E0FD01F7
:1001A000EA5DFE4FE081E23061F0E33020F4E130BF
:1001B00009F053C044C0E33011F1E43009F04DC000
:1001C00046C0E0901B01F0901C0100911D011091B0
:1001D0001E010E94650522E330E040E050E0E20E9F
:1001E000F31E041F151FE616F70608071907A8F5E2
:1001F000809146019091470160E070E01DC0E09061
:100200001701F09018010091190110911A010E9434
:10021000650522E330E040E050E0E20EF31E041FEB
:10022000151FE616F70608071907B8F4809146016E
:100230009091470161E070E00E94A8030EC0AA0FF0
:10024000BB1FAE5CBE4FED91FC91099506C080913D
:100250003001909131010E94BA041F910F91FF90DB
:10026000EF9008951F93182F8091020183FF28C0FB
:1002700013FD26C086E00E94C9001EC013FF1CC0EB
:1002800080912C01823051F40E94570560931B012C
:1002900070931C0180931D0190931E0180912C018D
:1002A000833051F40E945705609317017093180131
:1002B0008093190190931A01109302011F910895E0
:1002C0008091020183FDF8CFD9CF1F920F920FB614
:1002D0000F9211242F933F934F935F936F937F93CC
:1002E0008F939F93AF93BF93EF93FF9389B19091B7
:1002F000250189230E943201FF91EF91BF91AF91B7
:100300009F918F917F916F915F914F913F912F912D
:100310000F900FBE0F901F9018951F93182F80916C
:10032000010180FFF0C010FDEEC080E00E94C90016
:100330001EC010FF1CC080912601823051F40E9423
:10034000570560931B0170931C0180931D019093CE
:100350001E0180912601833051F40E94570560935D
:100360001701709318018093190190931A018091DD
:10037000010181FFCDC011FDCBC081E00E94C90009
:100380001EC011FF1CC080912701823051F40E94D1
:10039000570560931B0170931C0180931D0190937E
:1003A0001E0180912701833051F40E94570560930C
:1003B0001701709318018093190190931A0180918D
:1003C000010182FFAAC012FDA8C082E00E94C900FC
:1003D0001EC012FF1CC080912801823051F40E947F
:1003E000570560931B0170931C0180931D0190932E
:1003F0001E0180912801833051F40E9457056093BB
:100400001701709318018093190190931A0180913C
:10041000010183FF87C013FD85C083E00E94C900EE
:100420001EC013FF1CC080912901823051F40E942C
:10043000570560931B0170931C0180931D019093DD
:100440001E0180912901833051F40E945705609369
:100450001701709318018093190190931A018091EC
:10046000010184FF64C014FD62C084E00E94C900E1
:100470001EC014FF1CC080912A01823051F40E94DA
:10048000570560931B0170931C0180931D0190938D
:100490001E0180912A01833051F40E945705609318
:1004A0001701709318018093190190931A0180919C
:1004B000010185FF41C015FD3FC085E00E94C900D4
:1004C0001EC015FF1CC080912B01823051F40E9488
:1004D000570560931B0170931C0180931D0190933D
:1004E0001E0180912B01833051F40E9457056093C7
:1004F0001701709318018093190190931A011093BA
:1005000001011F9108958091010180FD30CF11CF2D
:100510008091010181FD53CF34CF8091010182FD93
:1005200076CF57CF8091010183FD99CF7ACF80910B
:10053000010184FDBCCF9DCF8091010185FDDFCFFE
:10054000C0CF1F920F920FB60F9211242F933F939B
:100550004F935F936F937F938F939F93AF93BF93CB
:10056000EF93FF9386B19091240189230E948D011E
:10057000FF91EF91BF91AF919F918F917F916F917B
:100580005F914F913F912F910F900FBE0F901F9051
:1005900018951F93182F8091000181FFA2C011FDB3
:1005A000A0C087E00E94C9002CC011FF2AC0809122
:1005B0002D01823051F40E94650560931B017093F8
:1005C0001C0180931D0190931E0180912D018330A9
:1005D00051F40E9465056093170170931801809390
:1005E000190190931A0180912D01813051F40E94DC
:1005F000570560931F017093200180932101909310
:1006000022018091000182FF71C012FD6FC088E05D
:100610000E94C9002CC012FF2AC080912E01823096
:1006200051F40E94650560931B0170931C01809337
:100630001D0190931E0180912E01833051F40E9480
:1006400065056093170170931801809319019093C9
:100650001A0180912E01813051F40E945705609358
:100660001F017093200180932101909322018091BA
:10067000000183FF40C013FD3EC089E00E94C90015
:100680002CC012FF2AC080912F01823051F40E94A9
:10069000650560931B0170931C0180931D0190936D
:1006A0001E0180912F01833051F40E9465056093F3
:1006B0001701709318018093190190931A0180918A
:1006C0002F01813051F40E94570560931F017093F0
:1006D00020018093210190932201109300011F912A
:1006E00008958091000181FD8CCF5FCF8091000142
:1006F00082FDBDCF90CF8091000182FDEECFC1CFB2
:100700001F920F920FB60F9211242F933F934F9386
:100710005F936F937F938F939F93AF93BF93EF9369
:10072000FF9383B19091230189230E94C902FF9115
:10073000EF91BF91AF919F918F917F916F915F9159
:100740004F913F912F910F900FBE0F901F901895D2
:10075000FC016115710521F06130710531F513C09F
:100760002085332727FD3095432F532F808191819A
:10077000A281B381820F931FA41FB51F8083918331
:10078000A283B38308952185332727FD3095432F16
:10079000532F84819581A681B781820F931FA41F57
:1007A000B51F84839583A683B78308951F93162F5F
:1007B00087E060E00E94BE0688E061E00E94BE061D
:1007C00086E0612F70E00E941F06E0914601F091E3
:1007D0004701309711F08FEF81871F9108951F9384
:1007E000162F87E061E00E94BE0688E060E00E946C
:1007F000BE0686E0612F70E00E941F06E091460170
:10080000F0914701309711F081E081871F910895A1
:100810001F93162F82E060E00E94BE0684E061E034
:100820000E94BE0685E0612F70E00E941F06E091E5
:100830004601F0914701309711F08FEF80871F91AB
:1008400008951F93162F82E061E00E94BE0684E0A7
:1008500060E00E94BE0685E0612F70E00E941F06E6
:10086000E0914601F0914701309711F081E08087D7
:100870001F910895EF92FF920F931F93CF93DF93F1
:100880007C01EB01161617063CF40E942104C701F7
:100890006C2F0E94D6030BC000271127061B170BD5
:1008A000602F0E940804C701602F0E94EF03DF91B0
:1008B000CF911F910F91FF90EF900895EF92FF92CB
:1008C0000F931F93CF93DF937C01EB01161617064E
:1008D0003CF40E942104C7016C2F0E94EF030BC05F
:1008E00000271127061B170B602F0E940804C70161
:1008F000602F0E94D603DF91CF911F910F91FF903F
:10090000EF90089587E061E00E94BE0688E061E014
:100910000E94BE0686E060E070E00E941F06089517
:1009200082E061E00E94BE0684E061E00E94BE06B3
:1009300085E060E070E00E941F0608950F931F930A
:100940008C010E949004C8010E9482041F910F91A3
:10095000089587E061E00E947F0688E061E00E94E0
:100960007F0682E061E00E947F0684E061E00E94F1
:100970007F0608951F93CF93DF93FC0183899489A9
:1009800020E001972FEF8F3F9207D9F7C589D689CD
:10099000A685B785758560E031E040E050E010E065
:1009A000CE01212F01972FEF8F3F9207D9F78C911E
:1009B000872311F0632B03C0832F80956823330FA7
:1009C0004F5F5F4F4830510559F78789908D20E080
:1009D00001972FEF8F3F9207D9F7809188012091DF
:1009E000890190E001968F73907030E08217930731
:1009F00079F0E0918801F0E0E85BFE4F6083809140
:100A0000880190E001968F7390708093880103C0F5
:100A1000838D8160838FDF91CF911F9108951F9205
:100A20000F920FB60F9211242F933F938F939F93A2
:100A3000AF93BF9380918E0190918F01A09190010F
:100A4000B0919101309192010196A11DB11D232F0A
:100A50002D5F2D3720F02D570196A11DB11D20933C
:100A6000920180938E0190938F01A0939001B09397
:100A7000910180918A0190918B01A0918C01B0919C
:100A80008D010196A11DB11D80938A0190938B0168
:100A9000A0938C01B0938D01BF91AF919F918F91E5
:100AA0003F912F910F900FBE0F901F9018958FB709
:100AB000F89420918E0130918F01409190015091D6
:100AC00091018FBFB901CA0108959FB7F894209191
:100AD0008A0130918B0140918C0150918D0186B536
:100AE000A89B06C08F3F21F02F5F3F4F4F4F5F4FB6
:100AF0009FBF542F432F322F2227280F311D411D16
:100B0000511D82E0220F331F441F551F8A95D1F7D4
:100B1000B901CA0108959B01AC017FB7F894809197
:100B20008A0190918B01A0918C01B0918D0166B5E5
:100B3000A89B05C06F3F19F00196A11DB11D7FBF95
:100B4000BA2FA92F982F8827860F911DA11DB11D9F
:100B500062E0880F991FAA1FBB1F6A95D1F7BC01DD
:100B60002DC0FFB7F89480918A0190918B01A091DC
:100B70008C01B0918D01E6B5A89B05C0EF3F19F03F
:100B80000196A11DB11DFFBFBA2FA92F982F88274D
:100B90008E0F911DA11DB11DE2E0880F991FAA1FA4
:100BA000BB1FEA95D1F7861B970B885E9340C8F26E
:100BB000215030404040504068517C4F2115310554
:100BC0004105510571F60895789484B5826084BD1D
:100BD00084B5816084BD85B5826085BD85B5816041
:100BE00085BDEEE6F0E0808181608083E1E8F0E0A1
:100BF0001082808182608083808181608083E0E8D0
:100C0000F0E0808181608083E1EBF0E080818460AE
:100C10008083E0EBF0E0808181608083EAE7F0E0B0
:100C20008081846080838081826080838081816014
:100C300080838081806880831092C10008951F9313
:100C4000CF93DF93182FEB0161E00E947F0620977E
:100C500009F44AC0CF3FD10509F449C0E12FF0E0C3
:100C6000E255FF4F84918330C1F0843028F4813005
:100C700051F08230B1F50CC0863019F1873049F15E
:100C8000843079F514C084B5806884BDC7BD33C095
:100C900084B5806284BDC8BD2EC08091800080680C
:100CA00080938000D0938900C093880024C08091F5
:100CB0008000806280938000D0938B00C0938A0074
:100CC0001AC08091B00080688093B000C093B300D8
:100CD00012C08091B00080628093B000C093B400D5
:100CE0000AC0C038D1051CF4812F60E002C0812FFA
:100CF00061E00E94BE06DF91CF911F910895CF93CE
:100D0000DF93482F50E0CA0186569F4FFC01349173
:100D10004A575F4FFA018491882369F190E0880F68
:100D2000991FFC01E859FF4FA591B491FC01EE58C1
:100D3000FF4FC591D491662351F42FB7F8948C914D
:100D4000932F909589238C93888189230BC06230DF
:100D500061F42FB7F8948C91932F909589238C93FD
:100D60008881832B88832FBF06C09FB7F8948C910E
:100D7000832B8C939FBFDF91CF910895482F50E034
:100D8000CA0182559F4FFC012491CA0186569F4F8C
:100D9000FC0194914A575F4FFA013491332309F4CF
:100DA00040C0222351F1233071F0243028F4213047
:100DB000A1F0223011F514C02630B1F02730C1F077
:100DC0002430D9F404C0809180008F7703C08091D3
:100DD00080008F7D8093800010C084B58F7702C023
:100DE00084B58F7D84BD09C08091B0008F7703C02A
:100DF0008091B0008F7D8093B000E32FF0E0EE0F84
:100E0000FF1FEE58FF4FA591B4912FB7F8946623BA
:100E100021F48C919095892302C08C91892B8C931D
:100E20002FBF089508951F920F920FB60F921124AD
:100E30002F933F934F938F939F93EF93FF938091C3
:100E4000C00082FD1DC04091C6002091D3013091A9
:100E5000D4012F5F3F4F2F7330708091D501909157
:100E6000D6012817390771F0E091D301F091D40130
:100E7000ED56FE4F40833093D4012093D30102C03E
:100E80008091C600FF91EF919F918F914F913F917B
:100E90002F910F900FBE0F901F901895E091270291
:100EA000F0912802E05CFF4F819191912081318186
:100EB000821B930B8F739070892B11F00E94120785
:100EC00008951F920F920FB60F9211242F933F9304
:100ED0008F939F93EF93FF93209117023091180205
:100EE0008091190290911A022817390731F48091E4
:100EF000C1008F7D8093C10014C0E0911902F09170
:100F00001A02E952FE4F20818091190290911A0233
:100F100001968F73907090931A0280931902209318
:100F2000C600FF91EF919F918F913F912F910F906C
:100F30000FBE0F901F901895AF92BF92DF92EF9265
:100F4000FF920F931F93CF93DF93EC017A018B01F4
:100F5000DD24403081EE580780E0680780E07807A4
:100F600011F0DD24D39491E0A92EB12CEC89FD89F8
:100F7000DD2069F0C50108A002C0880F991F0A94FE
:100F8000E2F7808360E079E08DE390E005C01082B5
:100F900060E874E88EE190E0A80197010E945C0986
:100FA0002150304040405040569547953795279501
:100FB00080E12030380720F0DD2011F0DD24D6CF8D
:100FC000E889F9893083EA89FB89208319A2EE89AF
:100FD000FF89408121E030E0C9010C8C02C0880FFC
:100FE000991F0A94E2F7482B4083EE89FF894081DC
:100FF000C9010D8C02C0880F991F0A94E2F7482B93
:101000004083EE89FF894081C9010E8C02C0880FA0
:10101000991F0A94E2F7482B4083EE89FF8980816B
:101020000F8C02C0220F331F0A94E2F72095282369
:101030002083DF91CF911F910F91FF90EF90DF9070
:10104000BF90AF900895DC011C96ED91FC911D9727
:10105000E05CFF4F2191319180819181281B390BF8
:101060002F733070C9010895DC011C96ED91FC913D
:101070001D97E05CFF4F20813181E054F040DF019B
:10108000AE5BBF4F8D919C9111972817390719F4CA
:101090002FEF3FEF07C08D919C91E80FF91F8081E2
:1010A000282F30E0C9010895DC011C96ED91FC91D8
:1010B0001D97E05CFF4F20813181E054F040DF015B
:1010C000AE5BBF4F8D919C9111972817390719F48A
:1010D0002FEF3FEF10C08D919C911197E80FF91FF2
:1010E00020818D919C91119701968F73907011962C
:1010F0009C938E9330E0C9010895DC0191968C9108
:101100009197882339F05496ED91FC915597808101
:1011100086FFF9CF91961C920895CF93DF93EC014F
:10112000EE85FF85E05CFF4F20813181E054F04087
:101130002F5F3F4F2F733070DF01AE5BBF4F8D913C
:101140009C91119728173907D1F3E05CFF4F8081FC
:101150009181E054F040E80FF91F6083EE85FF8530
:10116000E05CFF4F31832083EE89FF89208181E09D
:1011700090E00F8C02C0880F991F0A94E2F7282B89
:10118000208381E089A3EC89FD898081806480834C
:1011900081E090E0DF91CF91089510921E021092AD
:1011A0001D0288EE93E0A0E0B0E080931F029093D0
:1011B0002002A0932102B093220287E091E0909355
:1011C0001C0280931B0283E991E090932802809394
:1011D000270287ED91E090932A028093290285EC03
:1011E00090E090932C0280932B0284EC90E09093FB
:1011F0002E0280932D0280EC90E090933002809339
:101200002F0281EC90E0909332028093310282ECC5
:1012100090E0909334028093330286EC90E09093B8
:1012200036028093350284E08093370283E0809316
:10123000380287E08093390285E080933A0281E0AA
:1012400080933B020895CF93DF930E94E4050E94B0
:10125000C000CEE4D7E00E9492002097E1F30E9404
:101260004E07F9CFCF92DF92EF92FF920F931F9329
:10127000CF93DF937C016B018A01C0E0D0E00FC007
:10128000D6016D916D01D701ED91FC910190F08136
:10129000E02DC7010995C80FD91F01501040011555
:1012A000110571F7CE01DF91CF911F910F91FF9042
:1012B000EF90DF90CF900895A1E21A2EAA1BBB1BDE
:1012C000FD010DC0AA1FBB1FEE1FFF1FA217B30712
:1012D000E407F50720F0A21BB30BE40BF50B661F28
:1012E000771F881F991F1A9469F7609570958095EC
:1012F00090959B01AC01BD01CF010895EE0FFF1F3A
:0C1300000590F491E02D0994F894FFCFC3
:10130C000E3F08000000008D0832092308540834F1
:04131C00087D080040
:00000001FF
