:100000000C9462000C948A000C948A000C941704DF
:100010000C9462030C9426020C948A000C948A00BF
:100020000C948A000C948A000C948A000C948A0028
:100030000C948A000C948A000C948A000C948A0018
:100040000C9470060C948A000C948A000C948A001C
:100050000C948A000C948A000C948A000C948A00F8
:100060000C948A000C948A000000000024002700F1
:100070002A0000000000250028002B0000000000DE
:1000800023002600290004040404040404040202DA
:100090000202020203030303030301020408102007
:1000A0004080010204081020010204081020000012
:1000B0000007000201000003040600000000000029
:1000C00000008C0011241FBECFEFD8E0DEBFCDBFF3
:1000D00011E0A0E0B1E0E8ECF0E102C005900D9283
:1000E000A031B107D9F711E0A0E1B1E001C01D9244
:1000F000AE38B107E1F710E0C4ECD0E004C02297BD
:10010000FE010E945E08C23CD107C9F70E944D085B
:100110000C9462080C94000080E191E00E94B0050C
:10012000089580E191E00E94B604882309F45BC041
:100130008091020161E00E94F9078091080161E06D
:100140000E94F90764EF71E080E090E00E94C6062B
:100150008091000160E00E94F9078091020160E057
:100160000E94F907809104016FEF70E00E945A0726
:100170008091060160E00E94F9078091080160E02B
:100180000E94F90780910A016FEF70E00E945A0700
:1001900068EE73E080E090E00E94C6068091000166
:1001A00060E00E94F9078091020160E00E94F90777
:1001B000809104016BE970E00E945A07809106016A
:1001C00061E00E94F9078091080160E00E94F90750
:1001D00080910A016FEF70E00E945A0764EF71E0AE
:1001E00080E090E070C08091000161E00E94F9071A
:1001F0008091020160E00E94F907809104016FEF95
:1002000070E00E945A078091060161E00E94F907A0
:100210008091080160E00E94F90780910A016FEF68
:1002200070E00E945A078091020161E00E94F90784
:100230008091080161E00E94F9078091040160E06B
:1002400070E00E945A0780910A0160E070E00E940D
:100250005A0764EF71E080E090E00E94C60680914A
:10026000000160E00E94F9078091020160E00E94B5
:10027000F907809104016BE970E00E945A078091B0
:10028000060161E00E94F9078091080160E00E9488
:10029000F90780910A016FEF70E00E945A076FEF33
:1002A00070E080E090E00E94C6068091020161E06B
:1002B0000E94F9078091080161E00E94F90768EB4C
:1002C0007BE080E090E00E94C60608950F931F93A4
:1002D0008091000161E00E94BA078091020161E013
:1002E0000E94BA078091060161E00E94BA078091DE
:1002F000080161E00E94BA0700E111E0C8010E9414
:100300005805C80166E470E00E941C051F910F911A
:100310000895EF92FF920F931F93A82FB0E0FD0175
:10032000EF5DFE4FE081E23061F0E33020F4E13038
:1003300009F054C044C0E33011F1E43009F04EC07C
:1003400047C0E0901A01F0901B0100911C01109130
:100350001D010E94B8062AE030E040E050E0E20EC5
:10036000F31E041F151FE616F70608071907B0F558
:10037000809141019091420160E070E01DC0E090E9
:100380001601F090170100911801109119010E94B7
:10039000B8062AE030E040E050E0E20EF31E041F11
:1003A000151FE616F70608071907C0F480914101EA
:1003B0009091420161E070E00E94ED050FC07894D9
:1003C000AA0FBB1FA35DBE4FED91FC91099506C01E
:1003D00080912B0190912C010E941B061F910F917F
:1003E000FF90EF9008951F93182F80910E0183FFC7
:1003F00028C013FD26C086E00E9489011EC013FF9D
:100400001CC080912701823051F40E94B80660938D
:100410001A0170931B0180931C0190931D01809120
:100420002701833051F40E94B8066093160170933F
:100430001701809318019093190110930E011F91D9
:10044000089580910E0183FDF8CFD9CF1F920F92AE
:100450000FB60F9211242F933F934F935F936F9397
:100460007F938F939F93AF93BF93EF93FF9389B144
:100470009091200189230E94F301FF91EF91BF9198
:10048000AF919F918F917F916F915F914F913F912C
:100490002F910F900FBE0F901F9018951F93182F3C
:1004A00080910D0180FFF0C010FDEEC080E00E9441
:1004B00089011EC010FF1CC080912101823051F4BF
:1004C0000E94B80660931A0170931B0180931C016F
:1004D00090931D0180912101833051F40E94B80650
:1004E000609316017093170180931801909319017E
:1004F00080910D0181FFCDC011FDCBC081E00E9434
:1005000089011EC011FF1CC080912201823051F46C
:100510000E94B80660931A0170931B0180931C011E
:1005200090931D0180912201833051F40E94B806FE
:10053000609316017093170180931801909319012D
:1005400080910D0182FFAAC012FDA8C082E00E9426
:1005500089011EC012FF1CC080912301823051F41A
:100560000E94B80660931A0170931B0180931C01CE
:1005700090931D0180912301833051F40E94B806AD
:1005800060931601709317018093180190931901DD
:1005900080910D0183FF87C013FD85C083E00E9419
:1005A00089011EC013FF1CC080912401823051F4C8
:1005B0000E94B80660931A0170931B0180931C017E
:1005C00090931D0180912401833051F40E94B8065C
:1005D000609316017093170180931801909319018D
:1005E00080910D0184FF64C014FD62C084E00E940C
:1005F00089011EC014FF1CC080912501823051F476
:100600000E94B80660931A0170931B0180931C012D
:1006100090931D0180912501833051F40E94B8060A
:10062000609316017093170180931801909319013C
:1006300080910D0185FF41C015FD3FC085E00E94FE
:1006400089011EC015FF1CC080912601823051F423
:100650000E94B80660931A0170931B0180931C01DD
:1006600090931D0180912601833051F40E94B806B9
:1006700060931601709317018093180190931901EC
:1006800010930D011F91089580910D0180FD30CFD1
:1006900011CF80910D0181FD53CF34CF80910D0199
:1006A00082FD76CF57CF80910D0183FD99CF7ACF10
:1006B00080910D0184FDBCCF9DCF80910D0185FD02
:1006C000DFCFC0CF1F920F920FB60F9211242F933E
:1006D0003F934F935F936F937F938F939F93AF93CA
:1006E000BF93EF93FF9386B190911F0189230E94DE
:1006F0004E02FF91EF91BF91AF919F918F917F91AA
:100700006F915F914F913F912F910F900FBE0F907E
:100710001F9018951F93182F80910C0181FF78C0AE
:1007200011FD76C087E00E9489011EC011FF1CC028
:1007300080912801823051F40E94B80660931A011A
:1007400070931B0180931C0190931D0180912801DF
:10075000833051F40E94B80660931601709317011C
:10076000809318019093190180910C0182FF55C06C
:1007700012FD53C088E00E9489011EC012FF1CC0F8
:1007800080912901823051F40E94B80660931A01C9
:1007900070931B0180931C0190931D01809129018E
:1007A000833051F40E94B8066093160170931701CC
:1007B000809318019093190180910C0183FF32C03E
:1007C00013FD30C089E00E9489011EC012FF1CC0C9
:1007D00080912A01823051F40E94B80660931A0178
:1007E00070931B0180931C0190931D0180912A013D
:1007F000833051F40E94B80660931601709317017C
:10080000809318019093190110930C011F91089582
:1008100080910C0181FDA8CF89CF80910C0182FDD0
:10082000CBCFACCF80910C0182FDEECFCFCF1F920A
:100830000F920FB60F9211242F933F934F935F9314
:100840006F937F938F939F93AF93BF93EF93FF9398
:1008500083B190911E0189230E948A03FF91EF9139
:10086000BF91AF919F918F917F916F915F914F91C8
:100870003F912F910F900FBE0F901F901895B22FA0
:1008800084EA8093BC0020E030E004C02150304076
:1008900009F46BC08091BC0087FFF8CF8AE3809396
:1008A000BB0084E88093BC0020E030E004C021500D
:1008B000304009F45AC08091BC0087FFF8CF6093A4
:1008C000BB0084E88093BC0020E030E004C02150ED
:1008D000304009F44AC08091BC0087FFF8CF84E91A
:1008E0008093BC0084EA8093BC0020E030E003C029
:1008F00021503040D1F18091BC0087FFF9CF8BE3CC
:100900008093BB0084E88093BC0020E030E003C00B
:100910002150304051F18091BC0087FFF9CFFA019E
:1009200060E04B2F50E041505040A4EC74E818C0F8
:10093000862F90E08417950719F47093BC0002C0CD
:10094000A093BC0020E030E003C02150304069F0AB
:100950008091BC0087FFF9CF8091BB0081936F5FCE
:100960006B1730F384E98093BC000895DF93CF9335
:100970000F92CDB7DEB7198262E2AE014F5F5F4FD3
:1009800021E00E943F04898190E024E096958795BC
:100990002A95E1F781700F90CF91DF910895722F22
:1009A00084EA8093BC0020E030E004C02150304055
:1009B00009F441C08091BC0087FFF8CF8AE380939F
:1009C000BB0084E88093BC0020E030E003C02150ED
:1009D000304089F18091BC0087FFF9CF6093BB0064
:1009E0008091BC0084688093BC0020E030E003C0AC
:1009F0002150304001F18091BC0087FFF9CFFA010E
:100A000090E014C080818093BB008091BC0084681A
:100A10008093BC0020E030E003C02150304059F00A
:100A20008091BC0087FFF9CF9F5F3196971750F3F5
:100A300084E98093BC000895DF92EF92FF920F93B8
:100A40001F93DF93CF930F92CDB7DEB77C01D62EE5
:100A50006AE28E010F5F1F4FA80121E00E943F0450
:100A600089818E7F8983C7016AE2A80121E00E9403
:100A7000CF04D982C70163E2A80121E00E94CF041C
:100A8000C7016AE2A80121E00E943F0489818160D8
:100A90008983C7016AE2A80121E00E94CF040F9078
:100AA000CF91DF911F910F91FF90EF90DF9008950C
:100AB000EF92FF920F931F93DF93CF93CDB7DEB7E3
:100AC00028970FB6F894DEBF0FBECDBF7C016AE257
:100AD0008E010F5F1F4FA80121E00E943F04898112
:100AE0008E7F8983C7016AE2A80121E00E94CF04BA
:100AF00080E18983C7016FE0A80121E00E94CF0453
:100B0000C70161E2A80128E00E943F0481E48983D3
:100B100080E28B8389E18E8382E38F83C70161E268
:100B2000A80128E00E94CF04C7016AE2A80121E0E1
:100B30000E943F04898181608983C7016AE2A8011C
:100B400021E00E94CF0428960FB6F894DEBF0FBEB6
:100B5000CDBFCF91DF911F910F91FF90EF9008953E
:100B6000DF92EF92FF920F931F93DF93CF9300D00A
:100B7000CDB7DEB77C0188E48093B80080E4898338
:100B8000C7016BE28E010F5F1F4FA80121E00E9499
:100B9000CF0432E0D32ED982C7016EE0A80121E054
:100BA0000E94CF0484E08983DA82C7016AE2A80147
:100BB00022E00E94CF0485E08983C7016AE2A80190
:100BC00021E00E94CF040F900F90CF91DF911F91F1
:100BD0000F91FF90EF90DF900895FC016115710572
:100BE00021F06130710531F513C02085332727FDD1
:100BF0003095432F532F80819181A281B381820F41
:100C0000931FA41FB51F80839183A283B38308958C
:100C10002185332727FD3095432F532F84819581DC
:100C2000A681B781820F931FA41FB51F848395836C
:100C3000A683B78308951F93CF93DF93FC01838925
:100C4000948920E001972FEF8F3F9207D9F7C5894C
:100C5000D689A685B785758560E031E040E050E033
:100C600010E0CE01212F01972FEF8F3F9207D9F788
:100C70008C91872311F0632B03C0832F8095682309
:100C8000330F4F5F5F4F4830510559F78789908D7B
:100C900020E001972FEF8F3F9207D9F780918301D2
:100CA0002091840190E001968F73907030E082175C
:100CB000930779F0E0918301F0E0ED5BFE4F6083F4
:100CC0008091830190E001968F73907080938301EF
:100CD00003C0838D8160838FDF91CF911F91089531
:100CE0001F920F920FB60F9211242F933F938F9361
:100CF0009F93AF93BF938091890190918A01A091B6
:100D00008B01B0918C0130918D010196A11DB11D17
:100D1000232F2D5F2D3720F02D570196A11DB11DDA
:100D200020938D018093890190938A01A0938B0178
:100D3000B0938C018091850190918601A0918701EB
:100D4000B09188010196A11DB11D809385019093FA
:100D50008601A0938701B0938801BF91AF919F91C5
:100D60008F913F912F910F900FBE0F901F9018956C
:100D70008FB7F8942091890130918A0140918B01BD
:100D800050918C018FBFB901CA0108959B01AC013C
:100D90007FB7F8948091850190918601A091870199
:100DA000B091880166B5A89B05C06F3F19F0019608
:100DB000A11DB11D7FBFBA2FA92F982F8827860F9D
:100DC000911DA11DB11D62E0880F991FAA1FBB1FB5
:100DD0006A95D1F7BC012DC0FFB7F89480918501C9
:100DE00090918601A0918701B0918801E6B5A89BFA
:100DF00005C0EF3F19F00196A11DB11DFFBFBA2F2D
:100E0000A92F982F88278E0F911DA11DB11DE2E0FB
:100E1000880F991FAA1FBB1FEA95D1F7861B970B56
:100E2000885E9340C8F221503040404050406851A5
:100E30007C4F211531054105510571F608957894CF
:100E400084B5826084BD84B5816084BD85B58260CF
:100E500085BD85B5816085BDEEE6F0E0808181606D
:100E60008083E1E8F0E0108280818260808380816D
:100E700081608083E0E8F0E0808181608083E1EB45
:100E8000F0E0808184608083E0EBF0E0808181602D
:100E90008083EAE7F0E080818460808380818260E3
:100EA00080838081816080838081806880831092CC
:100EB000C10008951F93CF93DF93182FEB0161E0DA
:100EC0000E94BA07209709F44AC0CF3FD10509F420
:100ED00049C0E12FF0E0E255FF4F84918330C1F02B
:100EE000843028F4813051F08230B1F50CC0863066
:100EF00019F1873049F1843079F514C084B58068E0
:100F000084BDC7BD33C084B5806284BDC8BD2EC05A
:100F100080918000806880938000D0938900C09386
:100F2000880024C080918000806280938000D093EC
:100F30008B00C0938A001AC08091B00080688093B3
:100F4000B000C093B30012C08091B0008062809363
:100F5000B000C093B4000AC0C038D1051CF4812F82
:100F600060E002C0812F61E00E94F907DF91CF911C
:100F70001F910895CF93DF93482F50E0CA01865602
:100F80009F4FFC0134914A575F4FFA0184918823A7
:100F900069F190E0880F991FFC01E859FF4FA59176
:100FA000B491FC01EE58FF4FC591D491662351F4E2
:100FB0002FB7F8948C91932F909589238C938881E7
:100FC00089230BC0623061F42FB7F8948C91932F72
:100FD000909589238C938881832B88832FBF06C0AB
:100FE0009FB7F8948C91832B8C939FBFDF91CF9107
:100FF0000895482F50E0CA0182559F4FFC0124916B
:10100000CA0186569F4FFC0194914A575F4FFA01DF
:101010003491332309F440C0222351F1233071F07D
:10102000243028F42130A1F0223011F514C02630EC
:10103000B1F02730C1F02430D9F404C08091800091
:101040008F7703C0809180008F7D8093800010C0D7
:1010500084B58F7702C084B58F7D84BD09C080912F
:10106000B0008F7703C08091B0008F7D8093B00077
:10107000E32FF0E0EE0FFF1FEE58FF4FA591B49164
:101080002FB7F894662321F48C919095892302C0A0
:101090008C91892B8C932FBF0895CF93DF930E945F
:1010A0001F070E946601C0E0D0E00E9491002097D7
:1010B000E1F30E940000F9CFEE0FFF1F0590F491BD
:0810C000E02D0994F894FFCF24
:1010C8000200040005000700080006000E3F0800A3
:00000001FF
