:100000000C9463000C948B000C948B000C943F03B5
:100010000C948A020C944E010C948B000C948B006F
:100020000C948B000C948B000C948B000C948B0024
:100030000C948B000C948B000C948B000C948B0014
:100040000C9483040C948B000C942A060C94780670
:100050000C948B000C948B000C948B000C948B00F4
:100060000C948B000C948B000000000024002700EF
:100070002A0000000000250028002B0000000000DE
:1000800023002600290004040404040404040202DA
:100090000202020203030303030301020408102007
:1000A0004080010204081020010204081020000012
:1000B0000007000201000003040600000000000029
:1000C00000008D00E40711241FBECFEFD8E0DEBF93
:1000D000CDBF11E0A0E0B1E0E6E2F2E102C00590A0
:1000E0000D92A232B107D9F712E0A2E2B1E001C04D
:1000F0001D92A534B107E1F710E0C6ECD0E004C0D2
:100100002297FE010E940D09C23CD107C9F70E9447
:100110003A080C9411090C94000082E291E00E94CC
:100120001D0408958EE00E94140564E070E00E94B2
:10013000C20882E291E00E94F90308950F931F9391
:1001400003E212E0C80140E855E260E070E00E947E
:10015000B306C80160E071E00E94AF081F910F91E3
:100160000895EF92FF920F931F93A82FB0E0FD0127
:10017000E25DFE4FE081E23061F0E33020F4E130F7
:1001800009F054C044C0E33011F1E43009F04EC02E
:1001900047C0E0902701F0902801009129011091BB
:1001A0002A010E94CB042AE030E040E050E0E20E59
:1001B000F31E041F151FE616F70608071907B0F50A
:1001C00080914E0190914F0160E070E01DC0E09081
:1001D0002301F090240100912501109126010E9435
:1001E000CB042AE030E040E050E0E20EF31E041FB2
:1001F000151FE616F70608071907C0F480914E018F
:1002000090914F0161E070E00E9467030FC0789405
:10021000AA0FBB1FA65CBE4FED91FC91099506C0CD
:1002200080913801909139010E942E041F910F9105
:10023000FF90EF9008951F93182F80910F0183FF77
:1002400028C013FD26C086E00E94B1001EC013FF27
:100250001CC080913401823051F40E94CB04609321
:100260002701709328018093290190932A0180919E
:100270003401833051F40E94CB04609323017093C6
:100280002401809325019093260110930F011F9163
:10029000089580910F0183FDF8CFD9CF1F920F925F
:1002A0000FB60F9211242F933F934F935F936F9349
:1002B0007F938F939F93AF93BF93EF93FF9389B1F6
:1002C00090912D0189230E941B01FF91EF91BF9115
:1002D000AF919F918F917F916F915F914F913F91DE
:1002E0002F910F900FBE0F901F9018951F93182FEE
:1002F00080910E0180FFF0C010FDEEC080E00E94F2
:10030000B1001EC010FF1CC080912E01823051F43C
:100310000E94CB04609327017093280180932901E8
:1003200090932A0180912E01833051F40E94CB04D6
:1003300060932301709324018093250190932601FB
:1003400080910E0181FFCDC011FDCBC081E00E94E4
:10035000B1001EC011FF1CC080912F01823051F4EA
:100360000E94CB0460932701709328018093290198
:1003700090932A0180912F01833051F40E94CB0485
:1003800060932301709324018093250190932601AB
:1003900080910E0182FFAAC012FDA8C082E00E94D7
:1003A000B1001EC012FF1CC080913001823051F498
:1003B0000E94CB0460932701709328018093290148
:1003C00090932A0180913001833051F40E94CB0434
:1003D000609323017093240180932501909326015B
:1003E00080910E0183FF87C013FD85C083E00E94CA
:1003F000B1001EC013FF1CC080913101823051F446
:100400000E94CB04609327017093280180932901F7
:1004100090932A0180913101833051F40E94CB04E2
:10042000609323017093240180932501909326010A
:1004300080910E0184FF64C014FD62C084E00E94BC
:10044000B1001EC014FF1CC080913201823051F4F3
:100450000E94CB04609327017093280180932901A7
:1004600090932A0180913201833051F40E94CB0491
:1004700060932301709324018093250190932601BA
:1004800080910E0185FF41C015FD3FC085E00E94AF
:10049000B1001EC015FF1CC080913301823051F4A1
:1004A0000E94CB0460932701709328018093290157
:1004B00090932A0180913301833051F40E94CB0440
:1004C000609323017093240180932501909326016A
:1004D00010930E011F91089580910E0180FD30CF81
:1004E00011CF80910E0181FD53CF34CF80910E0149
:1004F00082FD76CF57CF80910E0183FD99CF7ACFC1
:1005000080910E0184FDBCCF9DCF80910E0185FDB1
:10051000DFCFC0CF1F920F920FB60F9211242F93EF
:100520003F934F935F936F937F938F939F93AF937B
:10053000BF93EF93FF9386B190912C0189230E9482
:100540007601FF91EF91BF91AF919F918F917F9134
:100550006F915F914F913F912F910F900FBE0F9030
:100560001F9018951F93182F80910D0181FF78C05F
:1005700011FD76C087E00E94B1001EC011FF1CC0B3
:1005800080913501823051F40E94CB0460932701A1
:10059000709328018093290190932A01809135015D
:1005A000833051F40E94CB046093230170932401A3
:1005B000809325019093260180910D0182FF55C003
:1005C00012FD53C088E00E94B1001EC012FF1CC083
:1005D00080913601823051F40E94CB046093270150
:1005E000709328018093290190932A01809136010C
:1005F000833051F40E94CB04609323017093240153
:10060000809325019093260180910D0183FF32C0D4
:1006100013FD30C089E00E94B1001EC012FF1CC053
:1006200080913701823051F40E94CB0460932701FE
:10063000709328018093290190932A0180913701BA
:10064000833051F40E94CB04609323017093240102
:10065000809325019093260110930D011F91089519
:1006600080910D0181FDA8CF89CF80910D0182FD80
:10067000CBCFACCF80910D0182FDEECFCFCF1F92BB
:100680000F920FB60F9211242F933F934F935F93C6
:100690006F937F938F939F93AF93BF93EF93FF934A
:1006A00083B190912B0189230E94B202FF91EF91B7
:1006B000BF91AF919F918F917F916F915F914F917A
:1006C0003F912F910F900FBE0F901F901895FC0136
:1006D0006115710521F06130710531F513C0208578
:1006E000332727FD3095432F532F80819181A2819D
:1006F000B381820F931FA41FB51F80839183A283B0
:10070000B38308952185332727FD3095432F532F39
:1007100084819581A681B781820F931FA41FB51F85
:1007200084839583A683B78308951F93162F87E04C
:1007300060E00E94D50588E061E00E94D50586E072
:10074000612F70E00E943605E0914E01F0914F015B
:10075000309711F08FEF81871F9108951F93162F07
:1007600087E061E00E94D50588E060E00E94D50541
:1007700086E0612F70E00E943605E0914E01F09115
:100780004F01309711F081E081871F9108951F93E9
:10079000162F82E060E00E94D50584E061E00E94AF
:1007A000D50585E0612F70E00E943605E0914E018D
:1007B000F0914F01309711F08FEF80871F910895CE
:1007C0001F93162F82E061E00E94D50584E060E06F
:1007D0000E94D50585E0612F70E00E943605E0910A
:1007E0004E01F0914F01309711F081E080871F9109
:1007F0000895EF92FF920F931F93CF93DF937C01A5
:10080000EB01161617063CF40E94E003C7016C2F9B
:100810000E94AE030BC000271127061B170B602F89
:100820000E94C703C701602F0E949503DF91CF91FB
:100830001F910F91FF90EF90089587E061E00E9473
:10084000960588E061E00E94960582E061E00E94E2
:10085000960584E061E00E94960508951F93CF936A
:10086000DF93FC018389948920E001972FEF8F3F6C
:100870009207D9F7C589D689A685B785758560E0C1
:1008800031E040E050E010E0CE01212F01972FEF42
:100890008F3F9207D9F78C91872311F0632B03C008
:1008A000832F80956823330F4F5F5F4F483051058A
:1008B00059F78789908D20E001972FEF8F3F92079E
:1008C000D9F7809190012091910190E001968F736A
:1008D000907030E08217930779F0E0919001F0E09A
:1008E000E05BFE4F60838091900190E001968F73F2
:1008F00090708093900103C0838D8160838FDF911E
:10090000CF911F9108951F920F920FB60F9211244D
:100910002F933F938F939F93AF93BF9380919601B3
:1009200090919701A0919801B091990130919A010D
:100930000196A11DB11D232F2D5F2D3720F02D57BE
:100940000196A11DB11D20939A0180939601909369
:100950009701A0939801B093990180919201909191
:100960009301A0919401B09195010196A11DB11D33
:100970008093920190939301A0939401B093950179
:10098000BF91AF919F918F913F912F910F900FBE8B
:100990000F901F9018958FB7F89420919601309181
:1009A000970140919801509199018FBFB901CA01F7
:1009B0000895789484B5826084BD84B5816084BDD7
:1009C00085B5826085BD85B5816085BDEEE6F0E0C8
:1009D000808181608083E1E8F0E010828081826024
:1009E0008083808181608083E0E8F0E080818160A5
:1009F0008083E1EBF0E0808184608083E0EBF0E0D5
:100A0000808181608083EAE7F0E080818460808378
:100A10008081826080838081816080838081806822
:100A200080831092C1000895982F8E3008F09E5058
:100A30009770809110018295880F880F807C892B98
:100A400080937C0080917A00806480937A0080910A
:100A50007A0086FDFCCF2091780040917900942F98
:100A600080E030E0282B392BC90108951F93CF93E4
:100A7000DF93182FEB0161E00E949605209709F49F
:100A80004AC0CF3FD10509F449C0E12FF0E0E2555B
:100A9000FF4F84918330C1F0843028F4813051F0CD
:100AA0008230B1F50CC0863019F1873049F18430BD
:100AB00079F514C084B5806884BDC7BD33C084B5E2
:100AC000806284BDC8BD2EC0809180008068809304
:100AD0008000D0938900C093880024C0809180005A
:100AE000806280938000D0938B00C0938A001AC0EC
:100AF0008091B00080688093B000C093B30012C0B2
:100B00008091B00080628093B000C093B4000AC0AE
:100B1000C038D1051CF4812F60E002C0812F61E054
:100B20000E94D505DF91CF911F910895CF93DF9358
:100B3000482F50E0CA0186569F4FFC0134914A5716
:100B40005F4FFA018491882369F190E0880F991F23
:100B5000FC01E859FF4FA591B491FC01EE58FF4FFD
:100B6000C591D491662351F42FB7F8948C91932FAB
:100B7000909589238C93888189230BC0623061F41E
:100B80002FB7F8948C91932F909589238C9388811B
:100B9000832B88832FBF06C09FB7F8948C91832B3B
:100BA0008C939FBFDF91CF910895482F50E0CA01E9
:100BB00082559F4FFC012491CA0186569F4FFC012C
:100BC00094914A575F4FFA013491332309F440C09E
:100BD000222351F1233071F0243028F42130A1F088
:100BE000223011F514C02630B1F02730C1F0243086
:100BF000D9F404C0809180008F7703C08091800079
:100C00008F7D8093800010C084B58F7702C084B53B
:100C10008F7D84BD09C08091B0008F7703C0809123
:100C2000B0008F7D8093B000E32FF0E0EE0FFF1F48
:100C3000EE58FF4FA591B4912FB7F894662321F495
:100C40008C919095892302C08C91892B8C932FBF16
:100C5000089508951F920F920FB60F9211242F93AB
:100C60003F934F938F939F93EF93FF938091C00097
:100C700082FD1DC04091C6002091DB013091DC0156
:100C80002F5F3F4F2F7330708091DD019091DE0117
:100C90002817390771F0E091DB01F091DC01E5568E
:100CA000FE4F40833093DC012093DB0102C0809132
:100CB000C600FF91EF919F918F914F913F912F919E
:100CC0000F900FBE0F901F901895E0912F02F0919A
:100CD0003002E05CFF4F8191919120813181821B34
:100CE000930B8F739070892B11F00E942906089541
:100CF0001F920F920FB60F9211242F933F938F9351
:100D00009F93EF93FF9320911F02309120028091D7
:100D10002102909122022817390731F48091C100F5
:100D20008F7D8093C10014C0E0912102F0912202D6
:100D3000E152FE4F20818091210290912202019682
:100D40008F73907090932202809321022093C600AB
:100D5000FF91EF919F918F913F912F910F900FBE37
:100D60000F901F901895AF92BF92DF92EF92FF9273
:100D70000F931F93CF93DF93EC017A018B01DD2456
:100D8000403081EE580780E0680780E0780711F076
:100D9000DD24D39491E0A92EB12CEC89FD89DD20CE
:100DA00069F0C50108A002C0880F991F0A94E2F7F4
:100DB000808360E079E08DE390E005C0108260E818
:100DC00074E88EE190E0A80197010E94D5082150B7
:100DD000304040405040569547953795279580E1E3
:100DE0002030380720F0DD2011F0DD24D6CFE8894F
:100DF000F9893083EA89FB89208319A2EE89FF896A
:100E0000408121E030E0C9010C8C02C0880F991F9D
:100E10000A94E2F7482B4083EE89FF894081C9019B
:100E20000D8C02C0880F991F0A94E2F7482B40836B
:100E3000EE89FF894081C9010E8C02C0880F991F7D
:100E40000A94E2F7482B4083EE89FF8980810F8C5A
:100E500002C0220F331F0A94E2F720952823208333
:100E6000DF91CF911F910F91FF90EF90DF90BF9096
:100E7000AF900895DC011C96ED91FC911D97E05C0C
:100E8000FF4F2191319180819181281B390B2F7364
:100E90003070C9010895DC011C96ED91FC911D97FD
:100EA000E05CFF4F20813181E054F040DF01AE5B18
:100EB000BF4F8D919C9111972817390719F42FEF87
:100EC0003FEF07C08D919C91E80FF91F8081282F7B
:100ED00030E0C9010895DC011C96ED91FC911D974D
:100EE000E05CFF4F20813181E054F040DF01AE5BD8
:100EF000BF4F8D919C9111972817390719F42FEF47
:100F00003FEF10C08D919C911197E80FF91F208140
:100F10008D919C91119701968F73907011969C936F
:100F20008E9330E0C9010895DC0191968C919197E0
:100F3000882339F05496ED91FC915597808186FF76
:100F4000F9CF91961C920895CF93DF93EC01EE8533
:100F5000FF85E05CFF4F20813181E054F0402F5F3E
:100F60003F4F2F733070DF01AE5BBF4F8D919C916F
:100F7000119728173907D1F3E05CFF4F80819181E9
:100F8000E054F040E80FF91F6083EE85FF85E05CD8
:100F9000FF4F31832083EE89FF89208181E090E03B
:100FA0000F8C02C0880F991F0A94E2F7282B208328
:100FB00081E089A3EC89FD8980818064808381E060
:100FC00090E0DF91CF9108951092260210922502B1
:100FD00088EE93E0A0E0B0E080932702909328028F
:100FE000A0932902B0932A0285E191E09093240214
:100FF000809323028BE991E09093300280932F023B
:101000008FED91E0909332028093310285EC90E075
:10101000909334028093330284EC90E090933602F4
:101020008093350280EC90E09093380280933702F1
:1010300081EC90E090933A028093390282EC90E048
:1010400090933C0280933B0286EC90E090933E02AA
:1010500080933D0284E080933F0283E080934002CE
:1010600087E08093410285E08093420281E0809393
:1010700043020895CF93DF930E94D9040E949E00FB
:10108000C5E6D6E00E9492002097E1F30E94650633
:10109000F9CFCF92DF92EF92FF920F931F93CF93EE
:1010A000DF937C016B018A01C0E0D0E00FC0D60164
:1010B0006D916D01D701ED91FC910190F081E02DD2
:1010C000C7010995C80FD91F01501040011511051E
:1010D00071F7CE01DF91CF911F910F91FF90EF90AB
:1010E000DF90CF900895EF92FF920F931F938C01A2
:1010F000DC01ED91FC910190F081E02D6DE009950E
:101100007C01D801ED91FC910190F081E02DC801A6
:101110006AE009959C012E0D3F1DC9011F910F9199
:10112000FF90EF900895CF93DF93EC016115710567
:1011300019F420E030E00FC0DB010D900020E9F74A
:101140001197A61BB70BE881F9810280F381E02D8E
:10115000AD0109959C01C901DF91CF910895EF92EE
:10116000FF920F931F937C010E9493088C01C7018B
:101170000E947308080F191FC8011F910F91FF905B
:10118000EF90089597FB092E07260AD077FD04D02B
:101190002ED006D000201AF4709561957F4F0895E7
:1011A000F6F7909581959F4F0895A1E21A2EAA1BFC
:1011B000BB1BFD010DC0AA1FBB1FEE1FFF1FA21707
:1011C000B307E407F50720F0A21BB30BE40BF50B04
:1011D000661F771F881F991F1A9469F7609570958D
:1011E000809590959B01AC01BD01CF010895AA1B8C
:1011F000BB1B51E107C0AA1FBB1FA617B70710F002
:10120000A61BB70B881F991F5A95A9F78095909533
:10121000BC01CD010895EE0FFF1F0590F491E02D64
:061220000994F894FFCFD1
:1012260048656C6C6F20776F726C6421000E3F0806
:101236000100000000A40749083A076B074B079412
:0212460007009F
:00000001FF
