:100000000C9463000C948B000C948B000C945D0397
:100010000C94A8020C946C010C948B000C948B0033
:100020000C948B000C948B000C948B000C948B0024
:100030000C948B000C948B000C948B000C948B0014
:100040000C94A1040C948B000C947F060C94CD06A8
:100050000C948B000C948B000C948B000C948B00F4
:100060000C948B000C948B000000000024002700EF
:100070002A0000000000250028002B0000000000DE
:1000800023002600290004040404040404040202DA
:100090000202020203030303030301020408102007
:1000A0004080010204081020010204081020000012
:1000B0000007000201000003040600000000000029
:1000C00000008D00390811241FBECFEFD8E0DEBF3D
:1000D000CDBF11E0A0E0B1E0E2E8F2E102C005909E
:1000E0000D92A432B107D9F712E0A4E2B1E001C049
:1000F0001D92A734B107E1F710E0C6ECD0E004C0D0
:100100002297FE010E943B09C23CD107C9F70E9419
:100110008F080C943F090C94000084E291E00E9447
:100120003B04089560910D0170910E0184E291E00D
:100130000E94170462E070E080E090E00E94F70403
:1001400020910F013091100180910D0190910E01CD
:10015000820F931F90930E0180930D01309521958E
:100160003F4F3093100120930F0164EF71E080E066
:1001700090E00E94F70408950F931F9305E212E0A8
:10018000C80140E855E260E070E00E940807C8013D
:1001900060E071E00E9404091F910F910895EF92B1
:1001A000FF920F931F93A82FB0E0FD01E05DFE4F7B
:1001B000E081E23061F0E33020F4E13009F054C036
:1001C00044C0E33011F1E43009F04EC047C0E09084
:1001D0002901F0902A0100912B0110912C010E941D
:1001E000E9042AE030E040E050E0E20EF31E041F94
:1001F000151FE616F70608071907B0F5809150019C
:100200009091510160E070E01DC0E0902501F090F8
:10021000260100912701109128010E94E9042AE09B
:1002200030E040E050E0E20EF31E041F151FE6161A
:10023000F70608071907C0F4809150019091510109
:1002400061E070E00E9485030FC07894AA0FBB1F85
:10025000A45CBE4FED91FC91099506C080913A01D6
:1002600090913B010E944C041F910F91FF90EF90E1
:1002700008951F93182F8091130183FF28C013FD49
:1002800026C086E00E94CF001EC013FF1CC08091D4
:100290003601823051F40E94E90460932901709381
:1002A0002A0180932B0190932C0180913601833099
:1002B00051F40E94E9046093250170932601809314
:1002C000270190932801109313011F9108958091A5
:1002D000130183FDF8CFD9CF1F920F920FB60F9263
:1002E00011242F933F934F935F936F937F938F933B
:1002F0009F93AF93BF93EF93FF9389B190912F0199
:1003000089230E943901FF91EF91BF91AF919F9195
:100310008F917F916F915F914F913F912F910F90AE
:100320000FBE0F901F9018951F93182F80911201E8
:1003300080FFF0C010FDEEC080E00E94CF001EC024
:1003400010FF1CC080913001823051F40E94E904FA
:100350006093290170932A0180932B0190932C01C3
:1003600080913001833051F40E94E90460932501AB
:1003700070932601809327019093280180911201A8
:1003800081FFCDC011FDCBC081E00E94CF001EC017
:1003900011FF1CC080913101823051F40E94E904A8
:1003A0006093290170932A0180932B0190932C0173
:1003B00080913101833051F40E94E904609325015A
:1003C0007093260180932701909328018091120158
:1003D00082FFAAC012FDA8C082E00E94CF001EC00A
:1003E00012FF1CC080913201823051F40E94E90456
:1003F0006093290170932A0180932B0190932C0123
:1004000080913201833051F40E94E9046093250108
:100410007093260180932701909328018091120107
:1004200083FF87C013FD85C083E00E94CF001EC0FC
:1004300013FF1CC080913301823051F40E94E90403
:100440006093290170932A0180932B0190932C01D2
:1004500080913301833051F40E94E90460932501B7
:1004600070932601809327019093280180911201B7
:1004700084FF64C014FD62C084E00E94CF001EC0EF
:1004800014FF1CC080913401823051F40E94E904B1
:100490006093290170932A0180932B0190932C0182
:1004A00080913401833051F40E94E9046093250166
:1004B0007093260180932701909328018091120167
:1004C00085FF41C015FD3FC085E00E94CF001EC0E2
:1004D00015FF1CC080913501823051F40E94E9045F
:1004E0006093290170932A0180932B0190932C0132
:1004F00080913501833051F40E94E9046093250115
:100500007093260180932701909328011093120184
:100510001F9108958091120180FD30CF11CF8091FD
:10052000120181FD53CF34CF8091120182FD76CF2D
:1005300057CF8091120183FD99CF7ACF809112011C
:1005400084FDBCCF9DCF8091120185FDDFCFC0CF50
:100550001F920F920FB60F9211242F933F934F9338
:100560005F936F937F938F939F93AF93BF93EF931B
:10057000FF9386B190912E0189230E949401FF91EF
:10058000EF91BF91AF919F918F917F916F915F910B
:100590004F913F912F910F900FBE0F901F90189584
:1005A0001F93182F8091110181FF78C011FD76C033
:1005B00087E00E94CF001EC011FF1CC08091370150
:1005C000823051F40E94E9046093290170932A015A
:1005D00080932B0190932C0180913701833051F44B
:1005E0000E94E904609325017093260180932701FE
:1005F000909328018091110182FF55C012FD53C0D4
:1006000088E00E94CF001EC012FF1CC080913801FC
:10061000823051F40E94E9046093290170932A0109
:1006200080932B0190932C0180913801833051F4F9
:100630000E94E904609325017093260180932701AD
:10064000909328018091110183FF32C013FD30C0C7
:1006500089E00E94CF001EC012FF1CC080913901AA
:10066000823051F40E94E9046093290170932A01B9
:1006700080932B0190932C0180913901833051F4A8
:100680000E94E9046093250170932601809327015D
:1006900090932801109311011F91089580911101E9
:1006A00081FDA8CF89CF8091110182FDCBCFACCF46
:1006B0008091110182FDEECFCFCF1F920F920FB626
:1006C0000F9211242F933F934F935F936F937F93D8
:1006D0008F939F93AF93BF93EF93FF9383B19091C9
:1006E0002D0189230E94D002FF91EF91BF91AF911C
:1006F0009F918F917F916F915F914F913F912F913A
:100700000F900FBE0F901F901895FC016115710599
:1007100021F06130710531F513C02085332727FDA5
:100720003095432F532F80819181A281B381820F15
:10073000931FA41FB51F80839183A283B383089561
:100740002185332727FD3095432F532F84819581B1
:10075000A681B781820F931FA41FB51F8483958341
:10076000A683B78308951F93162F87E060E00E9449
:100770002A0688E061E00E942A0686E0612F70E088
:100780000E948B05E0915001F0915101309711F0DA
:100790008FEF81871F9108951F93162F87E061E0E7
:1007A0000E942A0688E060E00E942A0686E0612F07
:1007B00070E00E948B05E0915001F091510130975B
:1007C00011F081E081871F9108951F93162F82E019
:1007D00060E00E942A0684E061E00E942A0685E02B
:1007E000612F70E00E948B05E0915001F091510162
:1007F000309711F08FEF80871F9108951F93162F68
:1008000082E061E00E942A0684E060E00E942A06FD
:1008100085E0612F70E00E948B05E0915001F0911E
:100820005101309711F081E080871F910895EF9278
:10083000FF920F931F93CF93DF937C01EB0116166A
:1008400017063CF40E94FE03C7016C2F0E94CC03E4
:100850000BC000271127061B170B602F0E94E50312
:10086000C701602F0E94B303DF91CF911F910F91B9
:10087000FF90EF90089587E061E00E94EB0588E02B
:1008800061E00E94EB0582E061E00E94EB0584E0FC
:1008900061E00E94EB0508951F93CF93DF93FC0165
:1008A0008389948920E001972FEF8F3F9207D9F732
:1008B000C589D689A685B785758560E031E040E0B9
:1008C00050E010E0CE01212F01972FEF8F3F9207CC
:1008D000D9F78C91872311F0632B03C0832F809568
:1008E0006823330F4F5F5F4F4830510559F78789B1
:1008F000908D20E001972FEF8F3F9207D9F78091DD
:1009000092012091930190E001968F73907030E0F6
:100910008217930779F0E0919201F0E0EE5AFE4FD2
:1009200060838091920190E001968F739070809324
:10093000920103C0838D8160838FDF91CF911F91DE
:1009400008951F920F920FB60F9211242F933F9389
:100950008F939F93AF93BF9380919801909199014A
:10096000A0919A01B0919B0130919C010196A11D2B
:10097000B11D232F2D5F2D3720F02D570196A11D7E
:10098000B11D20939C018093980190939901A093AD
:100990009A01B0939B018091940190919501A0914F
:1009A0009601B09197010196A11DB11D809394010C
:1009B00090939501A0939601B0939701BF91AF9149
:1009C0009F918F913F912F910F900FBE0F901F908D
:1009D00018958FB7F8942091980130919901409122
:1009E0009A0150919B018FBFB901CA0108959B01E3
:1009F000AC017FB7F8948091940190919501A091FA
:100A00009601B091970166B5A89B05C06F3F19F09C
:100A10000196A11DB11D7FBFBA2FA92F982F88273E
:100A2000860F911DA11DB11D62E0880F991FAA1F9D
:100A3000BB1F6A95D1F7BC012DC0FFB7F894809118
:100A4000940190919501A0919601B0919701E6B51E
:100A5000A89B05C0EF3F19F00196A11DB11DFFBF76
:100A6000BA2FA92F982F88278E0F911DA11DB11D78
:100A7000E2E0880F991FAA1FBB1FEA95D1F7861BDA
:100A8000970B885E9340C8F2215030404040504060
:100A900068517C4F211531054105510571F60895C6
:100AA000789484B5826084BD84B5816084BD85B549
:100AB000826085BD85B5816085BDEEE6F0E0808110
:100AC00081608083E1E8F0E0108280818260808331
:100AD000808181608083E0E8F0E0808181608083B4
:100AE000E1EBF0E0808184608083E0EBF0E08081E6
:100AF00081608083EAE7F0E0808184608083808188
:100B0000826080838081816080838081806880832F
:100B10001092C10008951F93CF93DF93182FEB011C
:100B200061E00E94EB05209709F44AC0CF3FD10550
:100B300009F449C0E12FF0E0E255FF4F8491833082
:100B4000C1F0843028F4813051F08230B1F50CC00E
:100B5000863019F1873049F1843079F514C084B5B5
:100B6000806884BDC7BD33C084B5806284BDC8BD04
:100B70002EC080918000806880938000D09389008F
:100B8000C093880024C080918000806280938000A0
:100B9000D0938B00C0938A001AC08091B000806807
:100BA0008093B000C093B30012C08091B000806207
:100BB0008093B000C093B4000AC0C038D1051CF4C3
:100BC000812F60E002C0812F61E00E942A06DF9140
:100BD000CF911F910895CF93DF93482F50E0CA0122
:100BE00086569F4FFC0134914A575F4FFA0184911A
:100BF000882369F190E0880F991FFC01E859FF4FA5
:100C0000A591B491FC01EE58FF4FC591D491662394
:100C100051F42FB7F8948C91932F909589238C934E
:100C2000888189230BC0623061F42FB7F8948C91CE
:100C3000932F909589238C938881832B88832FBF52
:100C400006C09FB7F8948C91832B8C939FBFDF9144
:100C5000CF910895482F50E0CA0182559F4FFC0163
:100C60002491CA0186569F4FFC0194914A575F4FC9
:100C7000FA013491332309F440C0222351F1233087
:100C800071F0243028F42130A1F0223011F514C085
:100C90002630B1F02730C1F02430D9F404C080915F
:100CA00080008F7703C0809180008F7D80938000CB
:100CB00010C084B58F7702C084B58F7D84BD09C014
:100CC0008091B0008F7703C08091B0008F7D8093BA
:100CD000B000E32FF0E0EE0FFF1FEE58FF4FA5919D
:100CE000B4912FB7F894662321F48C9190958923C1
:100CF00002C08C91892B8C932FBF089508951F9269
:100D00000F920FB60F9211242F933F934F938F930F
:100D10009F93EF93FF938091C00082FD1DC040918F
:100D2000C6002091DD013091DE012F5F3F4F2F7310
:100D300030708091DF019091E0012817390771F040
:100D4000E091DD01F091DE01E356FE4F40833093E8
:100D5000DE012093DD0102C08091C600FF91EF917A
:100D60009F918F914F913F912F910F900FBE0F90B8
:100D70001F901895E0913102F0913202E05CFF4F34
:100D80008191919120813181821B930B8F7390709F
:100D9000892B11F00E947E0608951F920F920FB6C4
:100DA0000F9211242F933F938F939F93EF93FF9371
:100DB00020912102309122028091230290912402FD
:100DC0002817390731F48091C1008F7D8093C100CD
:100DD00014C0E0912302F0912402EF51FE4F2081D4
:100DE000809123029091240201968F7390709093CA
:100DF0002402809323022093C600FF91EF919F91DC
:100E00008F913F912F910F900FBE0F901F901895CB
:100E1000AF92BF92DF92EF92FF920F931F93CF9307
:100E2000DF93EC017A018B01DD24403081EE58071D
:100E300080E0680780E0780711F0DD24D39491E02A
:100E4000A92EB12CEC89FD89DD2069F0C50108A02F
:100E500002C0880F991F0A94E2F7808360E079E06E
:100E60008DE390E005C0108260E874E88EE190E0C8
:100E7000A80197010E94170921503040404050407E
:100E8000569547953795279580E12030380720F013
:100E9000DD2011F0DD24D6CFE889F9893083EA8995
:100EA000FB89208319A2EE89FF89408121E030E08F
:100EB000C9010C8C02C0880F991F0A94E2F7482BD5
:100EC0004083EE89FF894081C9010D8C02C0880FE3
:100ED000991F0A94E2F7482B4083EE89FF894081ED
:100EE000C9010E8C02C0880F991F0A94E2F7482BA3
:100EF0004083EE89FF8980810F8C02C0220F331F4F
:100F00000A94E2F7209528232083DF91CF911F9147
:100F10000F91FF90EF90DF90BF90AF900895DC01AC
:100F20001C96ED91FC911D97E05CFF4F2191319152
:100F300080819181281B390B2F733070C90108956E
:100F4000DC011C96ED91FC911D97E05CFF4F208128
:100F50003181E054F040DF01AE5BBF4F8D919C9139
:100F600011972817390719F42FEF3FEF07C08D911C
:100F70009C91E80FF91F8081282F30E0C901089566
:100F8000DC011C96ED91FC911D97E05CFF4F2081E8
:100F90003181E054F040DF01AE5BBF4F8D919C91F9
:100FA00011972817390719F42FEF3FEF10C08D91D3
:100FB0009C911197E80FF91F20818D919C911197B9
:100FC00001968F73907011969C938E9330E0C901B7
:100FD0000895DC0191968C919197882339F054966D
:100FE000ED91FC915597808186FFF9CF91961C92E7
:100FF0000895CF93DF93EC01EE85FF85E05CFF4F12
:1010000020813181E054F0402F5F3F4F2F733070CB
:10101000DF01AE5BBF4F8D919C9111972817390767
:10102000D1F3E05CFF4F80819181E054F040E80F04
:10103000F91F6083EE85FF85E05CFF4F31832083DD
:10104000EE89FF89208181E090E00F8C02C0880F3B
:10105000991F0A94E2F7282B208381E089A3EC8969
:10106000FD8980818064808381E090E0DF91CF9171
:101070000895109228021092270288EE93E0A0E0D3
:10108000B0E08093290290932A02A0932B02B093A0
:101090002C0288E191E090932602809325028DE94D
:1010A00091E0909332028093310281EE91E090932F
:1010B00034028093330285EC90E090933602809363
:1010C000350284EC90E0909338028093370280ECF4
:1010D00090E090933A028093390281EC90E09093F3
:1010E0003C0280933B0282EC90E090933E0280931E
:1010F0003D0286EC90E09093400280933F0284E0B2
:101100008093410283E08093420287E08093430210
:1011100085E08093440281E0809345020895CF9357
:10112000DF930E9450050E94BC00CAEBD6E00E94EB
:1011300092002097E1F30E94BA06F9CFCF92DF9296
:10114000EF92FF920F931F93CF93DF937C016B017C
:101150008A01C0E0D0E00FC0D6016D916D01D701CA
:10116000ED91FC910190F081E02DC7010995C80F28
:10117000D91F015010400115110571F7CE01DF9103
:10118000CF911F910F91FF90EF90DF90CF90089536
:10119000EF92FF920F931F938C01DC01ED91FC9174
:1011A0000190F081E02D6DE009957C01D801ED9171
:1011B000FC910190F081E02DC8016AE009959C0145
:1011C0002E0D3F1DC9011F910F91FF90EF900895C3
:1011D000CF93DF93EC016115710519F420E030E045
:1011E0000FC0DB010D900020E9F71197A61BB70B8C
:1011F000E881F9810280F381E02DAD0109959C0120
:10120000C901DF91CF910895EF92FF920F931F9341
:101210007C010E94E8088C01C7010E94C808080FE1
:10122000191FC8011F910F91FF90EF900895A1E23F
:101230001A2EAA1BBB1BFD010DC0AA1FBB1FEE1F50
:10124000FF1FA217B307E407F50720F0A21BB30B9B
:10125000E40BF50B661F771F881F991F1A9469F717
:1012600060957095809590959B01AC01BD01CF0173
:101270000895EE0FFF1F0590F491E02D0994F89466
:02128000FFCF9E
:1012820048656C6C6F20776F726C6421009CFF055F
:10129200000E3F0800000000F9079E088F07C007F4
:0412A200A007E907B1
:00000001FF
