:100000000C9463000C948B000C948B000C945003A4
:100010000C949B020C945F010C948B000C948B004D
:100020000C948B000C948B000C948B000C948B0024
:100030000C948B000C948B000C948B000C948B0014
:100040000C9494040C948B000C9472060C94C006CF
:100050000C948B000C948B000C948B000C948B00F4
:100060000C948B000C948B000000000024002700EF
:100070002A0000000000250028002B0000000000DE
:1000800023002600290004040404040404040202DA
:100090000202020203030303030301020408102007
:1000A0004080010204081020010204081020000012
:1000B0000007000201000003040600000000000029
:1000C00000008D002C0811241FBECFEFD8E0DEBF4A
:1000D000CDBF11E0A0E0B1E0E8E6F2E102C005909A
:1000E0000D92A032B107D9F712E0A0E2B1E001C051
:1000F0001D92A334B107E1F710E0C6ECD0E004C0D4
:100100002297FE010E942E09C23CD107C9F70E9426
:1001100082080C9432090C94000080E291E00E9465
:100120002E0408950F931F9300E211E0C80164E6C6
:1001300070E00E940A046EEE72E080E090E00E949F
:10014000EA04C8016CE97FEF0E940A046EEE72E0D7
:1001500080E090E00E94EA041F910F9108950F93B0
:100160001F9301E212E0C80140E855E260E070E050
:100170000E94FB06C80160E071E00E94F7081F9131
:100180000F910895EF92FF920F931F93A82FB0E065
:10019000FD01E45DFE4FE081E23061F0E33020F4E8
:1001A000E13009F054C044C0E33011F1E43009F00B
:1001B0004EC047C0E0902501F09026010091270134
:1001C000109128010E94DC042AE030E040E050E079
:1001D000E20EF31E041F151FE616F706080719079F
:1001E000B0F580914C0190914D0160E070E01DC030
:1001F000E0902101F090220100912301109124014F
:100200000E94DC042AE030E040E050E0E20EF31E01
:10021000041F151FE616F70608071907C0F480919A
:100220004C0190914D0161E070E00E9478030FC095
:100230007894AA0FBB1FA85CBE4FED91FC91099565
:1002400006C080913601909137010E943F041F91B2
:100250000F91FF90EF9008951F93182F80910F0139
:1002600083FF28C013FD26C086E00E94C2001EC086
:1002700013FF1CC080913201823051F40E94DC04D3
:1002800060932501709326018093270190932801A4
:1002900080913201833051F40E94DC04609321018B
:1002A00070932201809323019093240110930F01F6
:1002B0001F91089580910F0183FDF8CFD9CF1F9230
:1002C0000F920FB60F9211242F933F934F935F938A
:1002D0006F937F938F939F93AF93BF93EF93FF930E
:1002E00089B190912B0189230E942C01FF91EF91FC
:1002F000BF91AF919F918F917F916F915F914F913E
:100300003F912F910F900FBE0F901F9018951F9344
:10031000182F80910E0180FFF0C010FDEEC080E02C
:100320000E94C2001EC010FF1CC080912C018230B0
:1003300051F40E94DC0460932501709326018093A0
:1003400027019093280180912C01833051F40E9461
:10035000DC04609321017093220180932301909328
:10036000240180910E0181FFCDC011FDCBC081E041
:100370000E94C2001EC011FF1CC080912D0182305E
:1003800051F40E94DC046093250170932601809350
:1003900027019093280180912D01833051F40E9410
:1003A000DC046093210170932201809323019093D8
:1003B000240180910E0182FFAAC012FDA8C082E034
:1003C0000E94C2001EC012FF1CC080912E0182300C
:1003D00051F40E94DC046093250170932601809300
:1003E00027019093280180912E01833051F40E94BF
:1003F000DC04609321017093220180932301909388
:10040000240180910E0183FF87C013FD85C083E026
:100410000E94C2001EC013FF1CC080912F018230B9
:1004200051F40E94DC0460932501709326018093AF
:1004300027019093280180912F01833051F40E946D
:10044000DC04609321017093220180932301909337
:10045000240180910E0184FF64C014FD62C084E019
:100460000E94C2001EC014FF1CC080913001823067
:1004700051F40E94DC04609325017093260180935F
:1004800027019093280180913001833051F40E941C
:10049000DC046093210170932201809323019093E7
:1004A000240180910E0185FF41C015FD3FC085E00C
:1004B0000E94C2001EC015FF1CC080913101823015
:1004C00051F40E94DC04609325017093260180930F
:1004D00027019093280180913101833051F40E94CB
:1004E000DC04609321017093220180932301909397
:1004F000240110930E011F91089580910E0180FD3B
:1005000030CF11CF80910E0181FD53CF34CF809138
:100510000E0182FD76CF57CF80910E0183FD99CFDA
:100520007ACF80910E0184FDBCCF9DCF80910E01CA
:1005300085FDDFCFC0CF1F920F920FB60F9211240F
:100540002F933F934F935F936F937F938F939F93DB
:10055000AF93BF93EF93FF9386B190912A018923C4
:100560000E948701FF91EF91BF91AF919F918F9171
:100570007F916F915F914F913F912F910F900FBE9F
:100580000F901F9018951F93182F80910D0181FFD8
:1005900078C011FD76C087E00E94C2001EC011FF26
:1005A0001CC080913301823051F40E94DC046093BE
:1005B0002501709326018093270190932801809153
:1005C0003301833051F40E94DC0460932101709365
:1005D0002201809323019093240180910D0182FFD9
:1005E00055C012FD53C088E00E94C2001EC012FF19
:1005F0001CC080913401823051F40E94DC0460936D
:100600002501709326018093270190932801809102
:100610003401833051F40E94DC0460932101709313
:100620002201809323019093240180910D0183FF87
:1006300032C013FD30C089E00E94C2001EC012FF0C
:100640001CC080913501823051F40E94DC0460931B
:1006500025017093260180932701909328018091B2
:100660003501833051F40E94DC04609321017093C2
:100670002201809323019093240110930D011F9177
:10068000089580910D0181FDA8CF89CF80910D0142
:1006900082FDCBCFACCF80910D0182FDEECFCFCFCD
:1006A0001F920F920FB60F9211242F933F934F93E7
:1006B0005F936F937F938F939F93AF93BF93EF93CA
:1006C000FF9383B19091290189230E94C302FF9176
:1006D000EF91BF91AF919F918F917F916F915F91BA
:1006E0004F913F912F910F900FBE0F901F90189533
:1006F000FC016115710521F06130710531F513C000
:100700002085332727FD3095432F532F80819181FA
:10071000A281B381820F931FA41FB51F8083918391
:10072000A283B38308952185332727FD3095432F76
:10073000532F84819581A681B781820F931FA41FB7
:10074000B51F84839583A683B78308951F93162FBF
:1007500087E060E00E941D0688E061E00E941D06BF
:1007600086E0612F70E00E947E05E0914C01F091DF
:100770004D01309711F08FEF81871F9108951F93DE
:10078000162F87E061E00E941D0688E060E00E946D
:100790001D0686E0612F70E00E947E05E0914C010D
:1007A000F0914D01309711F081E081871F910895FC
:1007B0001F93162F82E060E00E941D0684E061E036
:1007C0000E941D0685E0612F70E00E947E05E09189
:1007D0004C01F0914D01309711F08FEF80871F9100
:1007E00008951F93162F82E061E00E941D0684E0A9
:1007F00060E00E941D0685E0612F70E00E947E058A
:10080000E0914C01F0914D01309711F081E080872B
:100810001F910895EF92FF920F931F93CF93DF9351
:100820007C01EB01161617063CF40E94D803C701A1
:100830006C2F0E94BF030BC000271127061B170B4C
:10084000602F0E94F103C701602F0E94A603DF9171
:10085000CF911F910F91FF90EF90089587E061E095
:100860000E94DE0588E061E00E94DE0582E061E032
:100870000E94DE0584E061E00E94DE0508951F937A
:10088000CF93DF93FC018389948920E001972FEFB8
:100890008F3F9207D9F7C589D689A685B785758513
:1008A00060E031E040E050E010E0CE01212F019700
:1008B0002FEF8F3F9207D9F78C91872311F0632B8D
:1008C00003C0832F80956823330F4F5F5F4F4830FD
:1008D000510559F78789908D20E001972FEF8F3FC1
:1008E0009207D9F780918E0120918F0190E00196B7
:1008F0008F73907030E08217930779F0E0918E014A
:10090000F0E0E25BFE4F608380918E0190E0019603
:100910008F73907080938E0103C0838D8160838F6D
:10092000DF91CF911F9108951F920F920FB60F92F2
:1009300011242F933F938F939F93AF93BF938091F5
:10094000940190919501A0919601B09197013091F9
:1009500098010196A11DB11D232F2D5F2D3720F089
:100960002D570196A11DB11D2093980180939401EC
:1009700090939501A0939601B09397018091900177
:1009800090919101A0919201B09193010196A11DC6
:10099000B11D8093900190939101A0939201B09327
:1009A0009301BF91AF919F918F913F912F910F90A4
:1009B0000FBE0F901F9018958FB7F8942091940157
:1009C0003091950140919601509197018FBFB901E7
:1009D000CA0108959B01AC017FB7F8948091900102
:1009E00090919101A0919201B091930166B5A89B5D
:1009F00005C06F3F19F00196A11DB11D7FBFBA2F31
:100A0000A92F982F8827860F911DA11DB11D62E087
:100A1000880F991FAA1FBB1F6A95D1F7BC012DC073
:100A2000FFB7F8948091900190919101A09192016B
:100A3000B0919301E6B5A89B05C0EF3F19F0019670
:100A4000A11DB11DFFBFBA2FA92F982F88278E0F88
:100A5000911DA11DB11DE2E0880F991FAA1FBB1FA8
:100A6000EA95D1F7861B970B885E9340C8F2215018
:100A700030404040504068517C4F211531054105C0
:100A8000510571F60895789484B5826084BD84B56B
:100A9000816084BD85B5826085BD85B5816085BD79
:100AA000EEE6F0E0808181608083E1E8F0E0108292
:100AB000808182608083808181608083E0E8F0E0D3
:100AC000808181608083E1EBF0E0808184608083BD
:100AD000E0EBF0E0808181608083EAE7F0E08081F4
:100AE0008460808380818260808380818160808354
:100AF0008081806880831092C10008951F93CF93F6
:100B0000DF93182FEB0161E00E94DE05209709F4C6
:100B10004AC0CF3FD10509F449C0E12FF0E0E255CA
:100B2000FF4F84918330C1F0843028F4813051F03C
:100B30008230B1F50CC0863019F1873049F184302C
:100B400079F514C084B5806884BDC7BD33C084B551
:100B5000806284BDC8BD2EC0809180008068809373
:100B60008000D0938900C093880024C080918000C9
:100B7000806280938000D0938B00C0938A001AC05B
:100B80008091B00080688093B000C093B30012C021
:100B90008091B00080628093B000C093B4000AC01E
:100BA000C038D1051CF4812F60E002C0812F61E0C4
:100BB0000E941D06DF91CF911F910895CF93DF937F
:100BC000482F50E0CA0186569F4FFC0134914A5786
:100BD0005F4FFA018491882369F190E0880F991F93
:100BE000FC01E859FF4FA591B491FC01EE58FF4F6D
:100BF000C591D491662351F42FB7F8948C91932F1B
:100C0000909589238C93888189230BC0623061F48D
:100C10002FB7F8948C91932F909589238C9388818A
:100C2000832B88832FBF06C09FB7F8948C91832BAA
:100C30008C939FBFDF91CF910895482F50E0CA0158
:100C400082559F4FFC012491CA0186569F4FFC019B
:100C500094914A575F4FFA013491332309F440C00D
:100C6000222351F1233071F0243028F42130A1F0F7
:100C7000223011F514C02630B1F02730C1F02430F5
:100C8000D9F404C0809180008F7703C080918000E8
:100C90008F7D8093800010C084B58F7702C084B5AB
:100CA0008F7D84BD09C08091B0008F7703C0809193
:100CB000B0008F7D8093B000E32FF0E0EE0FFF1FB8
:100CC000EE58FF4FA591B4912FB7F894662321F405
:100CD0008C919095892302C08C91892B8C932FBF86
:100CE000089508951F920F920FB60F9211242F931B
:100CF0003F934F938F939F93EF93FF938091C00007
:100D000082FD1DC04091C6002091D9013091DA01C9
:100D10002F5F3F4F2F7330708091DB019091DC018A
:100D20002817390771F0E091D901F091DA01E756FF
:100D3000FE4F40833093DA012093D90102C08091A5
:100D4000C600FF91EF919F918F914F913F912F910D
:100D50000F900FBE0F901F901895E0912D02F0910B
:100D60002E02E05CFF4F8191919120813181821BA5
:100D7000930B8F739070892B11F00E947106089568
:100D80001F920F920FB60F9211242F933F938F93C0
:100D90009F93EF93FF9320911D0230911E0280914B
:100DA0001F02909120022817390731F48091C10069
:100DB0008F7D8093C10014C0E0911F02F09120024A
:100DC000E352FE4F208180911F02909120020196F4
:100DD0008F7390709093200280931F022093C6001F
:100DE000FF91EF919F918F913F912F910F900FBEA7
:100DF0000F901F901895AF92BF92DF92EF92FF92E3
:100E00000F931F93CF93DF93EC017A018B01DD24C5
:100E1000403081EE580780E0680780E0780711F0E5
:100E2000DD24D39491E0A92EB12CEC89FD89DD203D
:100E300069F0C50108A002C0880F991F0A94E2F763
:100E4000808360E079E08DE390E005C0108260E887
:100E500074E88EE190E0A80197010E940A092150F0
:100E6000304040405040569547953795279580E152
:100E70002030380720F0DD2011F0DD24D6CFE889BE
:100E8000F9893083EA89FB89208319A2EE89FF89D9
:100E9000408121E030E0C9010C8C02C0880F991F0D
:100EA0000A94E2F7482B4083EE89FF894081C9010B
:100EB0000D8C02C0880F991F0A94E2F7482B4083DB
:100EC000EE89FF894081C9010E8C02C0880F991FED
:100ED0000A94E2F7482B4083EE89FF8980810F8CCA
:100EE00002C0220F331F0A94E2F7209528232083A3
:100EF000DF91CF911F910F91FF90EF90DF90BF9006
:100F0000AF900895DC011C96ED91FC911D97E05C7B
:100F1000FF4F2191319180819181281B390B2F73D3
:100F20003070C9010895DC011C96ED91FC911D976C
:100F3000E05CFF4F20813181E054F040DF01AE5B87
:100F4000BF4F8D919C9111972817390719F42FEFF6
:100F50003FEF07C08D919C91E80FF91F8081282FEA
:100F600030E0C9010895DC011C96ED91FC911D97BC
:100F7000E05CFF4F20813181E054F040DF01AE5B47
:100F8000BF4F8D919C9111972817390719F42FEFB6
:100F90003FEF10C08D919C911197E80FF91F2081B0
:100FA0008D919C91119701968F73907011969C93DF
:100FB0008E9330E0C9010895DC0191968C91919750
:100FC000882339F05496ED91FC915597808186FFE6
:100FD000F9CF91961C920895CF93DF93EC01EE85A3
:100FE000FF85E05CFF4F20813181E054F0402F5FAE
:100FF0003F4F2F733070DF01AE5BBF4F8D919C91DF
:10100000119728173907D1F3E05CFF4F8081918158
:10101000E054F040E80FF91F6083EE85FF85E05C47
:10102000FF4F31832083EE89FF89208181E090E0AA
:101030000F8C02C0880F991F0A94E2F7282B208397
:1010400081E089A3EC89FD8980818064808381E0CF
:1010500090E0DF91CF910895109224021092230224
:1010600088EE93E0A0E0B0E0809325029093260202
:10107000A0932702B093280284E191E0909322028A
:101080008093210289E991E090932E0280932D02B2
:101090008DED91E09093300280932F0285EC90E0EB
:1010A000909332028093310284EC90E0909334026A
:1010B0008093330280EC90E0909336028093350267
:1010C00081EC90E0909338028093370282EC90E0BC
:1010D00090933A028093390286EC90E090933C0220
:1010E00080933B0284E080933D0283E080933E0244
:1010F00087E080933F0285E08093400281E0809307
:1011000041020895CF93DF930E9443050E94AF00F0
:10111000CDEAD6E00E9492002097E1F30E94AD064E
:10112000F9CFCF92DF92EF92FF920F931F93CF935D
:10113000DF937C016B018A01C0E0D0E00FC0D601D3
:101140006D916D01D701ED91FC910190F081E02D41
:10115000C7010995C80FD91F01501040011511058D
:1011600071F7CE01DF91CF911F910F91FF90EF901A
:10117000DF90CF900895EF92FF920F931F938C0111
:10118000DC01ED91FC910190F081E02D6DE009957D
:101190007C01D801ED91FC910190F081E02DC80116
:1011A0006AE009959C012E0D3F1DC9011F910F9109
:1011B000FF90EF900895CF93DF93EC0161157105D7
:1011C00019F420E030E00FC0DB010D900020E9F7BA
:1011D0001197A61BB70BE881F9810280F381E02DFE
:1011E000AD0109959C01C901DF91CF910895EF925E
:1011F000FF920F931F937C010E94DB088C01C701B3
:101200000E94BB08080F191FC8011F910F91FF9082
:10121000EF900895A1E21A2EAA1BBB1BFD010DC081
:10122000AA1FBB1FEE1FFF1FA217B307E407F50796
:1012300020F0A21BB30BE40BF50B661F771F881F72
:10124000991F1A9469F760957095809590959B0108
:10125000AC01BD01CF010895EE0FFF1F0590F49181
:08126000E02D0994F894FFCF82
:1012680048656C6C6F20776F726C6421000E3F08C4
:1012780000000000EC0791088207B3079307DC071A
:00000001FF
