:100000000C9463000C948B000C948B000C943A03BA
:100010000C9485020C9449010C948B000C948B0079
:100020000C948B000C948B000C948B000C948B0024
:100030000C948B000C948B000C948B000C948B0014
:100040000C9476040C948B000C94FB050C944906DC
:100050000C948B000C948B000C948B000C948B00F4
:100060000C948B000C948B000000000024002700EF
:100070002A0000000000250028002B0000000000DE
:1000800023002600290004040404040404040202DA
:100090000202020203030303030301020408102007
:1000A0004080010204081020010204081020000012
:1000B0000007000201000003040600000000000029
:1000C00000008D00B50711241FBECFEFD8E0DEBFC2
:1000D000CDBF11E0A0E0B1E0ECEDF0E102C0059091
:1000E0000D92A431B107D9F712E0A4E1B1E001C04B
:1000F0001D92A733B107E1F710E0C6ECD0E004C0D1
:100100002297FE010E946808C23CD107C9F70E94ED
:100110000B080C946C080C94000084E191E00E94A0
:10012000100408950F931F9304E111E0C8016CE9D6
:100130007FEF0E940204C80168E37FEF0E94C203C0
:100140001F910F91089585E192E040E855E260E04B
:1001500070E00E9484060895EF92FF920F931F9320
:10016000A82FB0E0FD01E05EFE4FE081E23061F0DB
:10017000E33020F4E13009F054C044C0E33011F121
:10018000E43009F04EC047C0E0901901F0901A0128
:1001900000911B0110911C010E94BE042AE030E076
:1001A00040E050E0E20EF31E041F151FE616F706AE
:1001B00008071907B0F5809140019091410160E076
:1001C00070E01DC0E0901501F0901601009117013C
:1001D000109118010E94BE042AE030E040E050E097
:1001E000E20EF31E041F151FE616F706080719078F
:1001F000C0F4809140019091410161E070E00E9463
:1002000062030FC07894AA0FBB1FA45DBE4FED918F
:10021000FC91099506C080912A0190912B010E94C2
:1002200021041F910F91FF90EF9008951F93182FB5
:100230008091020183FF28C013FD26C086E00E9442
:10024000AC001EC013FF1CC080912601823051F407
:100250000E94BE046093190170931A0180931B01E0
:1002600090931C0180912601833051F40E94BE04BA
:1002700060931501709316018093170190931801F4
:10028000109302011F9108958091020183FDF8CF20
:10029000D9CF1F920F920FB60F9211242F933F9335
:1002A0004F935F936F937F938F939F93AF93BF937E
:1002B000EF93FF9389B190911F0189230E9416014A
:1002C000FF91EF91BF91AF919F918F917F916F912E
:1002D0005F914F913F912F910F900FBE0F901F9004
:1002E00018951F93182F8091010180FFF0C010FD19
:1002F000EEC080E00E94AC001EC010FF1CC08091C8
:100300002001823051F40E94BE0460931901709361
:100310001A0180931B0190931C018091200183306E
:1003200051F40E94BE0460931501709316018093EE
:100330001701909318018091010181FFCDC011FD3B
:10034000CBC081E00E94AC001EC011FF1CC0809198
:100350002101823051F40E94BE0460931901709310
:100360001A0180931B0190931C018091210183301D
:1003700051F40E94BE04609315017093160180939E
:100380001701909318018091010182FFAAC012FD0C
:10039000A8C082E00E94AC001EC012FF1CC0809169
:1003A0002201823051F40E94BE04609319017093BF
:1003B0001A0180931B0190931C01809122018330CC
:1003C00051F40E94BE04609315017093160180934E
:1003D0001701909318018091010183FF87C013FDDD
:1003E00085C083E00E94AC001EC013FF1CC080913A
:1003F0002301823051F40E94BE046093190170936E
:100400001A0180931B0190931C018091230183307A
:1004100051F40E94BE0460931501709316018093FD
:100420001701909318018091010184FF64C014FDAD
:1004300062C084E00E94AC001EC014FF1CC080910A
:100440002401823051F40E94BE046093190170931C
:100450001A0180931B0190931C0180912401833029
:1004600051F40E94BE0460931501709316018093AD
:100470001701909318018091010185FF41C015FD7E
:100480003FC085E00E94AC001EC015FF1CC08091DB
:100490002501823051F40E94BE04609319017093CB
:1004A0001A0180931B0190931C01809125018330D8
:1004B00051F40E94BE04609315017093160180935D
:1004C000170190931801109301011F9108958091D5
:1004D000010180FD30CF11CF8091010181FD53CF0B
:1004E00034CF8091010182FD76CF57CF80910101F9
:1004F00083FD99CF7ACF8091010184FDBCCF9DCF40
:100500008091010185FDDFCFC0CF1F920F920FB602
:100510000F9211242F933F934F935F936F937F9389
:100520008F939F93AF93BF93EF93FF9386B1909177
:100530001E0189230E947101FF91EF91BF91AF913C
:100540009F918F917F916F915F914F913F912F91EB
:100550000F900FBE0F901F9018951F93182F80912A
:10056000000181FF78C011FD76C087E00E94AC00D9
:100570001EC011FF1CC080912701823051F40E94DF
:10058000BE046093190170931A0180931B0190932C
:100590001C0180912701833051F40E94BE046093B6
:1005A00015017093160180931701909318018091A3
:1005B000000182FF55C012FD53C088E00E94AC00CC
:1005C0001EC012FF1CC080912801823051F40E948D
:1005D000BE046093190170931A0180931B019093DC
:1005E0001C0180912801833051F40E94BE04609365
:1005F0001501709316018093170190931801809153
:10060000000183FF32C013FD30C089E00E94AC00BE
:100610001EC012FF1CC080912901823051F40E943B
:10062000BE046093190170931A0180931B0190938B
:100630001C0180912901833051F40E94BE04609313
:100640001501709316018093170190931801109370
:1006500000011F9108958091000181FDA8CF89CFED
:100660008091000182FDCBCFACCF8091000182FD53
:10067000EECFCFCF1F920F920FB60F9211242F9370
:100680003F934F935F936F937F938F939F93AF931A
:10069000BF93EF93FF9383B190911D0189230E9433
:1006A000AD02FF91EF91BF91AF919F918F917F919B
:1006B0006F915F914F913F912F910F900FBE0F90CF
:1006C0001F901895FC016115710521F061307105CD
:1006D00031F513C02085332727FD3095432F532F45
:1006E00080819181A281B381820F931FA41FB51FC6
:1006F00080839183A283B38308952185332727FDC7
:100700003095432F532F84819581A681B781820F25
:10071000931FA41FB51F84839583A683B783089571
:100720001F93162F87E060E00E94A60588E061E035
:100730000E94A60586E0612F70E00E940705E09107
:100740004001F0914101309711F08FEF81871F91A7
:1007500008951F93162F87E061E00E94A60588E0A8
:1007600060E00E94A60586E0612F70E00E94070508
:10077000E0914001F0914101309711F081E08187D3
:100780001F9108959B01161617061CF40E94A903D9
:10079000089566277727621B730B0E9490030895C4
:1007A0001F93162F82E060E00E94A60584E061E0BE
:1007B0000E94A60585E0612F70E00E940705E09188
:1007C0004001F0914101309711F08FEF80871F9128
:1007D00008951F93162F82E061E00E94A60584E031
:1007E00060E00E94A60585E0612F70E00E94070589
:1007F000E0914001F0914101309711F081E0808754
:100800001F9108959B01161617061CF40E94E90318
:10081000089566277727621B730B0E94D003089503
:1008200087E061E00E94670588E061E00E9467055B
:1008300082E061E00E94670584E061E00E94670554
:1008400008951F93CF93DF93FC018389948920E05F
:1008500001972FEF8F3F9207D9F7C589D689A685D3
:10086000B785758560E031E040E050E010E0CE01F2
:10087000212F01972FEF8F3F9207D9F78C91872374
:1008800011F0632B03C0832F80956823330F4F5FD4
:100890005F4F4830510559F78789908D20E00197C7
:1008A0002FEF8F3F9207D9F780918201209183012A
:1008B00090E001968F73907030E08217930779F083
:1008C000E0918201F0E0EE5BFE4F60838091820157
:1008D00090E001968F7390708093820103C0838DA6
:1008E0008160838FDF91CF911F9108951F920F92A6
:1008F0000FB60F9211242F933F938F939F93AF9333
:10090000BF938091880190918901A0918A01B09153
:100910008B0130918C010196A11DB11D232F2D5FFC
:100920002D3720F02D570196A11DB11D20938C016C
:100930008093880190938901A0938A01B0938B01E1
:100940008091840190918501A0918601B0918701E9
:100950000196A11DB11D8093840190938501A09300
:100960008601B0938701BF91AF919F918F913F9185
:100970002F910F900FBE0F901F9018958FB7F8947E
:10098000209188013091890140918A0150918B0119
:100990008FBFB901CA010895789484B5826084BD7F
:1009A00084B5816084BD85B5826085BD85B5816073
:1009B00085BDEEE6F0E0808181608083E1E8F0E0D3
:1009C0001082808182608083808181608083E0E802
:1009D000F0E0808181608083E1EBF0E080818460E1
:1009E0008083E0EBF0E0808181608083EAE7F0E0E3
:1009F0008081846080838081826080838081816047
:100A000080838081806880831092C10008951F9345
:100A1000CF93DF93182FEB0161E00E9467052097C9
:100A200009F44AC0CF3FD10509F449C0E12FF0E0F5
:100A3000E255FF4F84918330C1F0843028F4813037
:100A400051F08230B1F50CC0863019F1873049F190
:100A5000843079F514C084B5806884BDC7BD33C0C7
:100A600084B5806284BDC8BD2EC08091800080683E
:100A700080938000D0938900C093880024C0809127
:100A80008000806280938000D0938B00C0938A00A6
:100A90001AC08091B00080688093B000C093B3000A
:100AA00012C08091B00080628093B000C093B40007
:100AB0000AC0C038D1051CF4812F60E002C0812F2C
:100AC00061E00E94A605DF91CF911F910895CF9319
:100AD000DF93482F50E0CA0186569F4FFC013491A6
:100AE0004A575F4FFA018491882369F190E0880F9B
:100AF000991FFC01E859FF4FA591B491FC01EE58F4
:100B0000FF4FC591D491662351F42FB7F8948C917F
:100B1000932F909589238C93888189230BC0623011
:100B200061F42FB7F8948C91932F909589238C932F
:100B30008881832B88832FBF06C09FB7F8948C9140
:100B4000832B8C939FBFDF91CF910895482F50E066
:100B5000CA0182559F4FFC012491CA0186569F4FBE
:100B6000FC0194914A575F4FFA013491332309F401
:100B700040C0222351F1233071F0243028F4213079
:100B8000A1F0223011F514C02630B1F02730C1F0A9
:100B90002430D9F404C0809180008F7703C0809105
:100BA00080008F7D8093800010C084B58F7702C055
:100BB00084B58F7D84BD09C08091B0008F7703C05C
:100BC0008091B0008F7D8093B000E32FF0E0EE0FB6
:100BD000FF1FEE58FF4FA591B4912FB7F8946623ED
:100BE00021F48C919095892302C08C91892B8C9350
:100BF0002FBF089508951F920F920FB60F921124E0
:100C00002F933F934F938F939F93EF93FF938091F5
:100C1000C00082FD1DC04091C6002091CD013091E1
:100C2000CE012F5F3F4F2F7330708091CF01909195
:100C3000D0012817390771F0E091CD01F091CE0174
:100C4000E357FE4F40833093CE012093CD0102C085
:100C50008091C600FF91EF919F918F914F913F91AD
:100C60002F910F900FBE0F901F901895E0912102C9
:100C7000F0912202E05CFF4F8191919120813181BE
:100C8000821B930B8F739070892B11F00E94FA05D1
:100C900008951F920F920FB60F9211242F933F9336
:100CA0008F939F93EF93FF93209111023091120243
:100CB00080911302909114022817390731F4809122
:100CC000C1008F7D8093C10014C0E0911302F091A8
:100CD0001402EF52FE4F2081809113029091140272
:100CE00001968F7390709093140280931302209357
:100CF000C600FF91EF919F918F913F912F910F909F
:100D00000FBE0F901F901895AF92BF92DF92EF9297
:100D1000FF920F931F93CF93DF93EC017A018B0126
:100D2000DD24403081EE580780E0680780E07807D6
:100D300011F0DD24D39491E0A92EB12CEC89FD892A
:100D4000DD2069F0C50108A002C0880F991F0A9430
:100D5000E2F7808360E079E08DE390E005C01082E7
:100D600060E874E88EE190E0A80197010E944408D1
:100D70002150304040405040569547953795279533
:100D800080E12030380720F0DD2011F0DD24D6CFBF
:100D9000E889F9893083EA89FB89208319A2EE89E1
:100DA000FF89408121E030E0C9010C8C02C0880F2E
:100DB000991F0A94E2F7482B4083EE89FF8940810E
:100DC000C9010D8C02C0880F991F0A94E2F7482BC5
:100DD0004083EE89FF894081C9010E8C02C0880FD3
:100DE000991F0A94E2F7482B4083EE89FF8980819E
:100DF0000F8C02C0220F331F0A94E2F7209528239C
:100E00002083DF91CF911F910F91FF90EF90DF90A2
:100E1000BF90AF900895DC011C96ED91FC911D9759
:100E2000E05CFF4F2191319180819181281B390B2A
:100E30002F733070C9010895DC011C96ED91FC916F
:100E40001D97E05CFF4F20813181E054F040DF01CD
:100E5000AE5BBF4F8D919C9111972817390719F4FC
:100E60002FEF3FEF07C08D919C91E80FF91F808114
:100E7000282F30E0C9010895DC011C96ED91FC910A
:100E80001D97E05CFF4F20813181E054F040DF018D
:100E9000AE5BBF4F8D919C9111972817390719F4BC
:100EA0002FEF3FEF10C08D919C911197E80FF91F24
:100EB00020818D919C91119701968F73907011965E
:100EC0009C938E9330E0C9010895DC0191968C913A
:100ED0009197882339F05496ED91FC915597808134
:100EE00086FFF9CF91961C920895CF93DF93EC0182
:100EF000EE85FF85E05CFF4F20813181E054F040BA
:100F00002F5F3F4F2F733070DF01AE5BBF4F8D916E
:100F10009C91119728173907D1F3E05CFF4F80812E
:100F20009181E054F040E80FF91F6083EE85FF8562
:100F3000E05CFF4F31832083EE89FF89208181E0CF
:100F400090E00F8C02C0880F991F0A94E2F7282BBB
:100F5000208381E089A3EC89FD898081806480837E
:100F600081E090E0DF91CF910895109218021092E5
:100F7000170288EE93E0A0E0B0E08093190290930E
:100F80001A02A0931B02B0931C0287E091E0909399
:100F90001602809315028DE891E0909322028093CF
:100FA000210281ED91E0909324028093230285EC4D
:100FB00090E0909326028093250284EC90E0909339
:100FC00028028093270280EC90E090932A0280937D
:100FD000290281EC90E090932C0280932B0282EC0A
:100FE00090E090932E0280932D0286EC90E09093F7
:100FF000300280932F0284E08093310283E080935B
:10100000320287E08093330285E08093340281E0EE
:10101000809335020895CF93DF930E94CC040E9401
:10102000A300C6E3D6E00E9492002097E1F30E945D
:101030003606F9CFCF92DF92EF92FF920F931F9374
:10104000CF93DF937C016B018A01C0E0D0E00FC039
:10105000D6016D916D01D701ED91FC910190F08168
:10106000E02DC7010995C80FD91F01501040011587
:10107000110571F7CE01DF91CF911F910F91FF9074
:10108000EF90DF90CF900895A1E21A2EAA1BBB1B10
:10109000FD010DC0AA1FBB1FEE1FFF1FA217B30744
:1010A000E407F50720F0A21BB30BE40BF50B661F5A
:1010B000771F881F991F1A9469F76095709580951E
:1010C00090959B01AC01BD01CF010895EE0FFF1F6C
:0C10D0000590F491E02D0994F894FFCFF6
:1010DC000E3F080000000075071A080B073C071CA0
:0410EC00076507008D
:00000001FF
