:100000000C9436000C945E000C945E000C945C031F
:100010000C94A7020C946B010C945E000C945E008F
:100020000C945E000C945E000C945E000C945E00D8
:100030000C945E000C945E000C945E000C945E00C8
:100040000C9416040C945E000C9423050C9471051A
:100050000C945E000C945E000C945E000C945E00A8
:100060000C945E000C945E006000DD0611241FBE3F
:10007000CFEFD8E0DEBFCDBF11E0A0E0B1E0ECE70C
:10008000F1E102C005900D92AE35B107D9F712E04B
:10009000AEE5B1E001C01D92A239B107E1F710E071
:1000A000CCE6D0E004C02297FE010E94B808C83612
:1000B000D107C9F70E9433070C94BC080C940000C8
:1000C0008EE591E061E170E00E94B20384E691E088
:1000D00064E170E00E94B2038AE691E065E170E0BD
:1000E0000E94B2030895EF92FF920F931F9300E7CF
:1000F00012E0C80160E071E00E945F088EE591E0C7
:100100000E94BC03BC01C8014AE050E00E944C08B8
:1001100085E1E82E81E0F82EC801B7010E945F0852
:1001200084E691E00E94BC03BC01C8014AE050E0B3
:100130000E944C08C801B7010E945F088AE691E05E
:100140000E94BC03BC01C8014AE050E00E944C0878
:10015000C8010E946C0764E670E080E090E00E94B5
:100160006C041F910F91FF90EF9008950F931F93D0
:1001700000E712E0C80140E855E260E070E00E944C
:10018000AC05C80167E171E00E946208C80160E344
:1001900071E00E9462081F910F910895EF92FF9203
:1001A0000F931F93A82FB0E0FD01E558FE4FE081AB
:1001B000E23061F0E33020F4E13009F054C044C093
:1001C000E33011F1E43009F04EC047C0E090740113
:1001D000F090750100917601109177010E945E0404
:1001E0002AE030E040E050E0E20EF31E041F151F4D
:1001F000E616F70608071907B0F580919B01909164
:100200009C0160E070E01DC0E0907001F090710111
:1002100000917201109173010E945E042AE030E0A7
:1002200040E050E0E20EF31E041F151FE616F7062D
:1002300008071907C0F480919B0190919C0161E02F
:1002400070E00E9484030FC07894AA0FBB1FA957C7
:10025000BE4FED91FC91099506C08091850190916A
:1002600086010E94C1031F910F91FF90EF900895A6
:100270001F93182F80914B0183FF28C013FD26C0C8
:1002800086E00E94CE001EC013FF1CC08091810139
:10029000823051F40E945E04609374017093750182
:1002A000809376019093770180918101833051F49E
:1002B0000E945E04609370017093710180937201DB
:1002C0009093730110934B011F91089580914B01FE
:1002D00083FDF8CFD9CF1F920F920FB60F92112442
:1002E0002F933F934F935F936F937F938F939F933E
:1002F000AF93BF93EF93FF9389B190917A018923D4
:100300000E943801FF91EF91BF91AF919F918F9122
:100310007F916F915F914F913F912F910F900FBE01
:100320000F901F9018951F93182F80914A0180FFFE
:10033000F0C010FDEEC080E00E94CE001EC010FF95
:100340001CC080917B01823051F40E945E04609356
:100350007401709375018093760190937701809179
:100360007B01833051F40E945E04609370017093AE
:100370007101809372019093730180914A0181FF12
:10038000CDC011FDCBC081E00E94CE001EC011FF88
:100390001CC080917C01823051F40E945E04609305
:1003A0007401709375018093760190937701809129
:1003B0007C01833051F40E945E046093700170935D
:1003C0007101809372019093730180914A0182FFC1
:1003D000AAC012FDA8C082E00E94CE001EC012FF7B
:1003E0001CC080917D01823051F40E945E046093B4
:1003F00074017093750180937601909377018091D9
:100400007D01833051F40E945E046093700170930B
:100410007101809372019093730180914A0183FF6F
:1004200087C013FD85C083E00E94CE001EC013FF6D
:100430001CC080917E01823051F40E945E04609362
:100440007401709375018093760190937701809188
:100450007E01833051F40E945E04609370017093BA
:100460007101809372019093730180914A0184FF1E
:1004700064C014FD62C084E00E94CE001EC014FF60
:100480001CC080917F01823051F40E945E04609311
:100490007401709375018093760190937701809138
:1004A0007F01833051F40E945E0460937001709369
:1004B0007101809372019093730180914A0185FFCD
:1004C00041C015FD3FC085E00E94CE001EC015FF53
:1004D0001CC080918001823051F40E945E046093C0
:1004E00074017093750180937601909377018091E8
:1004F0008001833051F40E945E0460937001709318
:100500007101809372019093730110934A011F91BE
:10051000089580914A0180FD30CF11CF80914A012A
:1005200081FD53CF34CF80914A0182FD76CF57CFE2
:1005300080914A0183FD99CF7ACF80914A0184FD51
:10054000BCCF9DCF80914A0185FDDFCFC0CF1F92E8
:100550000F920FB60F9211242F933F934F935F93F7
:100560006F937F938F939F93AF93BF93EF93FF937B
:1005700086B19091790189230E949301FF91EF91B7
:10058000BF91AF919F918F917F916F915F914F91AB
:100590003F912F910F900FBE0F901F9018951F93B2
:1005A000182F8091490181FF78C011FD76C087E046
:1005B0000E94CE001EC011FF1CC0809182018230BB
:1005C00051F40E945E0460937401709375018093EE
:1005D00076019093770180918201833051F40E94DB
:1005E0005E04609370017093710180937201909327
:1005F00073018091490182FF55C012FD53C088E00C
:100600000E94CE001EC012FF1CC080918301823068
:1006100051F40E945E04609374017093750180939D
:1006200076019093770180918301833051F40E9489
:100630005E046093700170937101809372019093D6
:1006400073018091490183FF32C013FD30C089E0FE
:100650000E94CE001EC012FF1CC080918401823017
:1006600051F40E945E04609374017093750180934D
:1006700076019093770180918401833051F40E9438
:100680005E04609370017093710180937201909386
:100690007301109349011F9108958091490181FDD3
:1006A000A8CF89CF8091490182FDCBCFACCF80917B
:1006B000490182FDEECFCFCF1F920F920FB60F925E
:1006C00011242F933F934F935F936F937F938F9357
:1006D0009F93AF93BF93EF93FF9383B19091780172
:1006E00089230E94CF02FF91EF91BF91AF919F911B
:1006F0008F917F916F915F914F913F912F910F90CB
:100700000FBE0F901F901895FC016115710521F027
:100710006130710531F513C02085332727FD3095F1
:10072000432F532F80819181A281B381820F931F28
:10073000A41FB51F80839183A283B383089521856D
:10074000332727FD3095432F532F84819581A68130
:10075000B781820F931FA41FB51F84839583A6833F
:10076000B7830895FC01718360838FEF9FEF9383BC
:100770008283958384830895FC0180810E94000513
:1007800008951F93CF93DF93FC018389948920E020
:1007900001972FEF8F3F9207D9F7C589D689A68594
:1007A000B785758560E031E040E050E010E0CE01B3
:1007B000212F01972FEF8F3F9207D9F78C91872335
:1007C00011F0632B03C0832F80956823330F4F5F95
:1007D0005F4F4830510559F78789908D20E0019788
:1007E0002FEF8F3F9207D9F78091DD012091DE0135
:1007F00090E001968F73907030E08217930779F044
:10080000E091DD01F0E0E356FE4F60838091DD0171
:1008100090E001968F7390708093DD0103C0838D0B
:100820008160838FDF91CF911F9108951F920F9266
:100830000FB60F9211242F933F938F939F93AF93F3
:10084000BF938091E3019091E401A091E501B09103
:10085000E6013091E7010196A11DB11D232F2D5F07
:100860002D3720F02D570196A11DB11D2093E701D2
:100870008093E3019093E401A093E501B093E60136
:100880008091DF019091E001A091E101B091E2013E
:100890000196A11DB11D8093DF019093E001A0930B
:1008A000E101B093E201BF91AF919F918F913F9190
:1008B0002F910F900FBE0F901F9018958FB7F8943F
:1008C0002091E3013091E4014091E5015091E6016E
:1008D0008FBFB901CA0108959B01AC017FB7F8949D
:1008E0008091DF019091E001A091E101B091E201DE
:1008F00066B5A89B05C06F3F19F00196A11DB11DFB
:100900007FBFBA2FA92F982F8827860F911DA11D71
:10091000B11D62E0880F991FAA1FBB1F6A95D1F70E
:10092000BC012DC0FFB7F8948091DF019091E001E8
:10093000A091E101B091E201E6B5A89B05C0EF3FAF
:1009400019F00196A11DB11DFFBFBA2FA92F982F35
:1009500088278E0F911DA11DB11DE2E0880F991F00
:10096000AA1FBB1FEA95D1F7861B970B885E9340A1
:10097000C8F2215030404040504068517C4F211512
:1009800031054105510571F60895789484B582606A
:1009900084BD84B5816084BD85B5826085BD85B523
:1009A000816085BDEEE6F0E0808181608083E1E8D2
:1009B000F0E010828081826080838081816080830A
:1009C000E0E8F0E0808181608083E1EBF0E080810D
:1009D00084608083E0EBF0E0808181608083EAE7DF
:1009E000F0E0808184608083808182608083808168
:1009F000816080838081806880831092C100089527
:100A0000982F8E3008F09E50977080914C018295FF
:100A1000880F880F807C892B80937C0080917A00DE
:100A2000806480937A0080917A0086FDFCCF2091CB
:100A3000780040917900942F80E030E0282B392B0A
:100A4000C901089508951F920F920FB60F921124B5
:100A50002F933F934F938F939F93EF93FF938091A7
:100A6000C00082FD1DC04091C60020912802309137
:100A700029022F5F3F4F2F73307080912A0290918F
:100A80002B022817390771F0E0912802F091290212
:100A9000E851FE4F4083309329022093280202C080
:100AA0008091C600FF91EF919F918F914F913F915F
:100AB0002F910F900FBE0F901F901895E0917C0220
:100AC000F0917D02E05CFF4F819191912081318115
:100AD000821B930B8F739070892B11F00E9422055B
:100AE00008951F920F920FB60F9211242F933F93E8
:100AF0008F939F93EF93FF9320916C0230916D023F
:100B000080916E0290916F022817390731F480911D
:100B1000C1008F7D8093C10014C0E0916E02F091FE
:100B20006F02E45DFD4F208180916E0290916F0213
:100B300001968F73907090936F0280936E02209352
:100B4000C600FF91EF919F918F913F912F910F9050
:100B50000FBE0F901F901895AF92BF92DF92EF9249
:100B6000FF920F931F93CF93DF93EC017A018B01D8
:100B7000DD24403081EE580780E0680780E0780788
:100B800011F0DD24D39491E0A92EB12CEC89FD89DC
:100B9000DD2069F0C50108A002C0880F991F0A94E2
:100BA000E2F7808360E079E08DE390E005C0108299
:100BB00060E874E88EE190E0A80197010E94940833
:100BC00021503040404050405695479537952795E5
:100BD00080E12030380720F0DD2011F0DD24D6CF71
:100BE000E889F9893083EA89FB89208319A2EE8993
:100BF000FF89408121E030E0C9010C8C02C0880FE0
:100C0000991F0A94E2F7482B4083EE89FF894081BF
:100C1000C9010D8C02C0880F991F0A94E2F7482B76
:100C20004083EE89FF894081C9010E8C02C0880F84
:100C3000991F0A94E2F7482B4083EE89FF8980814F
:100C40000F8C02C0220F331F0A94E2F7209528234D
:100C50002083DF91CF911F910F91FF90EF90DF9054
:100C6000BF90AF900895DC011C96ED91FC911D970B
:100C7000E05CFF4F2191319180819181281B390BDC
:100C80002F733070C9010895DC011C96ED91FC9121
:100C90001D97E05CFF4F20813181E054F040DF017F
:100CA000AE5BBF4F8D919C9111972817390719F4AE
:100CB0002FEF3FEF07C08D919C91E80FF91F8081C6
:100CC000282F30E0C9010895DC011C96ED91FC91BC
:100CD0001D97E05CFF4F20813181E054F040DF013F
:100CE000AE5BBF4F8D919C9111972817390719F46E
:100CF0002FEF3FEF10C08D919C911197E80FF91FD6
:100D000020818D919C91119701968F73907011960F
:100D10009C938E9330E0C9010895DC0191968C91EB
:100D20009197882339F05496ED91FC9155978081E5
:100D300086FFF9CF91961C920895CF93DF93EC0133
:100D4000EE85FF85E05CFF4F20813181E054F0406B
:100D50002F5F3F4F2F733070DF01AE5BBF4F8D9120
:100D60009C91119728173907D1F3E05CFF4F8081E0
:100D70009181E054F040E80FF91F6083EE85FF8514
:100D8000E05CFF4F31832083EE89FF89208181E081
:100D900090E00F8C02C0880F991F0A94E2F7282B6D
:100DA000208381E089A3EC89FD8980818064808330
:100DB00081E090E0DF91CF9108951092730210923C
:100DC000720288EE93E0A0E0B0E08093740290930A
:100DD0007502A0937602B093770281E591E090933B
:100DE00071028093700288EE91E090937D0280936F
:100DF0007C028CE292E090937F0280937E0285ECED
:100E000090E0909381028093800284EC90E0909334
:100E100083028093820280EC90E09093850280931D
:100E2000840281EC90E0909387028093860282ECAA
:100E300090E0909389028093880286EC90E09093F2
:100E40008B0280938A0284E080938C0283E08093FB
:100E50008D0287E080938E0285E080938F0281E08F
:100E6000809390020895CF93DF930E94C5040E945F
:100E7000B600CEE5D5E00E9473002097E1F30E9412
:100E80005E05F9CFCF92DF92EF92FF920F931F93FF
:100E9000CF93DF937C016B018A01C0E0D0E00FC0EB
:100EA000D6016D916D01D701ED91FC910190F0811A
:100EB000E02DC7010995C80FD91F01501040011539
:100EC000110571F7CE01DF91CF911F910F91FF9026
:100ED000EF90DF90CF900895EF92FF920F931F93C2
:100EE0008C01DC01ED91FC910190F081E02D6DE031
:100EF00009957C01D801ED91FC910190F081E02DE4
:100F0000C8016AE009959C012E0D3F1DC9011F9182
:100F10000F91FF90EF900895CF93DF93EC0161154F
:100F2000710519F420E030E00FC0DB010D900020C6
:100F3000E9F71197A61BB70BE881F9810280F381CD
:100F4000E02DAD0109959C01C901DF91CF91089574
:100F50004F925F927F928F929F92AF92BF92CF9269
:100F6000DF92EF92FF920F931F93DF93CF93CDB752
:100F7000DEB7A1970FB6F894DEBF0FBECDBF2C0130
:100F8000742ECB01223008F42AE019A231E2C32EDC
:100F9000D12CCC0EDD1E822E9924AA24BB24672DD1
:100FA000752FA50194010E94940879018A01C80156
:100FB000B701A50194010E947508472D461B0894AE
:100FC000C108D1084A3014F4405D01C0495CF60103
:100FD0004083E114F1040105110521F07E2C5F2D01
:100FE000C801DDCFC201B6010E948C07A1960FB6E1
:100FF000F894DEBF0FBECDBFCF91DF911F910F914F
:10100000FF90EF90DF90CF90BF90AF909F908F9028
:101010007F905F904F900895CF92DF92EF92FF9272
:101020000F931F93CF93DF93EC016A017B0121158E
:10103000310541F4E881F9810190F081E02D642FC0
:1010400009951FC02A303105D1F477FF17C0E88118
:10105000F9810190F081E02D6DE209958C01442722
:101060005527BA014C195D096E097F09CE012AE0A6
:101070000E94A8079801280F391F04C02AE00E9487
:10108000A8079C01C901DF91CF911F910F91FF909B
:10109000EF90DF90CF900895EF92FF920F931F9300
:1010A0007B019A010027F7FC0095102FB801A701DA
:1010B0000E940C081F910F91FF90EF9008950E94DD
:1010C0008C070895EF92FF920F931F937C010E946B
:1010D0008C078C01C7010E946C07080F191FC801FB
:1010E0001F910F91FF90EF900895629FD001739F21
:1010F000F001829FE00DF11D649FE00DF11D929FB4
:10110000F00D839FF00D749FF00D659FF00D9927F2
:10111000729FB00DE11DF91F639FB00DE11DF91F16
:10112000BD01CF0111240895A1E21A2EAA1BBB1BF9
:10113000FD010DC0AA1FBB1FEE1FFF1FA217B307A3
:10114000E407F50720F0A21BB30BE40BF50B661FB9
:10115000771F881F991F1A9469F76095709580957D
:1011600090959B01AC01BD01CF010895EE0FFF1FCB
:0C1170000590F491E02D0994F894FFCF55
:10117C0049522053656E736F722052656164696EBB
:10118C0067733A2000090057656C636F6D652074B6
:10119C006F206578706572696D656E7420362100FC
:1011AC002D2D2D2D2D2D2D2D2D2D2D2D2D2D2D2D63
:1011BC002D2D2D2D2D2D2D2D000E3F080100000065
:0E11CC00009D0642073306640644068D0600A9
:00000001FF
