:100000000C94B2000C94DA000C94DA000C949E0468
:100010000C94E9030C94AD020C94DA000C94DA0011
:100020000C94DA000C94DA000C94DA000C94DA00E8
:100030000C94DA000C94DA000C94DA000C94DA00D8
:100040000C949B090C94DA000C94200B0C946E0B0E
:100050000C94DA000C94DA000C94DA000C94DA00B8
:100060000C94DA000C94DA0000C2010001001100C7
:1000700011000C0000E100000A002500250021000D
:10008000009600001900390039003600127A00008D
:100090001F004600460044008070000022004D0012
:1000A0004D004A00004B00003600750075007200DC
:1000B000403800004A009C009C0099008025000008
:1000C0007200EC00EC00E900C0120000E900DA0167
:1000D000DA01D70160090000D701B603B603B30304
:1000E000B0040000B3036E076E076B0758020000F0
:1000F0006E07DC0EDC0ED80E2C010000DC0EC11DDC
:10010000C11DBE1D00000000240027002A000000C1
:100110000000250028002B0000000000230026001E
:10012000290004040404040404040202020202027A
:1001300003030303030301020408102040800102AB
:10014000040810200102040810200000000700022B
:100150000100000304060000000000000000000190
:10016000DA0CF90011241FBECFEFD8E0DEBFCDBFFF
:1001700011E0A0E0B1E0EAE8FBE102C005900D92D9
:10018000A432B107D9F712E0A4E2B1E001C01D9298
:10019000AA36B107E1F711E0C2E6D1E004C0229728
:1001A000FE010E94B40DCE35D107C9F70E94300D73
:1001B0000C94B80D0C9400008130910581F46F5FB0
:1001C0007F4FB1F484E291E00E94150785E291E04F
:1001D0000E94FB058BE291E00E946A090895892B39
:1001E00039F46F5F7F4F21F48BE291E00E94560853
:1001F000089580E090E06FEF7FEF0E94DC000895AB
:1002000081E090E06FEF7FEF0E94DC00089585E2CF
:1002100091E00E943D05882339F0809147018823B1
:1002200019F481E08093470180914701882339F0D8
:1002300084E291E06EEC7FEF0E94CA06089584E2AA
:1002400091E00E940A07089588E492E040E051EEB0
:1002500060E070E00E94A90B8BE291E040E051EE7B
:1002600060E070E00E947B0785E291E00E94A305B8
:1002700008958E30910561F18F3091059CF489309D
:10028000910509F499C08A30910524F4039709F087
:10029000C6C080C08A30910509F49EC00B9709F052
:1002A000BEC0ACC08131910509F442C082319105D4
:1002B0003CF48F309105E1F0409709F0B0C028C0C0
:1002C0008231910509F444C0439709F0A8C050C099
:1002D00080916C00816080936C00809168008260E6
:1002E00080936800609353018091510181604FC0F9
:1002F00080916C00826080936C00809168008260C5
:1003000080936800609354018091510182603FC0E6
:1003100080916C00846080936C00809168008260A2
:1003200080936800609355018091510184602FC0D3
:1003300080916C00886080936C008091680082607E
:1003400080936800609356018091510188601FC0BE
:1003500080916C00806180936C0080916800826065
:1003600080936800609357018091510180610FC0B4
:1003700080916C00806280936C0080916800826044
:10038000809368006093580180915101806280934E
:100390005101089580916D00886080936D00809177
:1003A00068008460809368006093590180915201D5
:1003B000886080935201089580916B0082608093E1
:1003C0006B008091680081608093680060935A019F
:1003D0008091500182600FC080916B008460809397
:1003E0006B008091680081608093680060935B017E
:1003F00080915001846080935001089580916B003A
:10040000886080936B0080916800816080936800B1
:1004100060935C0180915001886080935001089541
:10042000EF92FF920F931F93A82FB0E0FD01ED5ABA
:10043000FE4FE081E23061F0E33020F4E13009F07A
:1004400054C044C0E33011F1E43009F04EC047C05D
:10045000E0904C01F0904D0100914E0110914F0140
:100460000E94E3092AE030E040E050E0E20EF31E93
:10047000041F151FE616F70608071907B0F5809147
:1004800073019091740160E070E01DC0E09048013C
:10049000F090490100914A0110914B010E94E3093B
:1004A0002AE030E040E050E0E20EF31E041F151F8A
:1004B000E616F70608071907C0F4809173019091BA
:1004C000740161E070E00E9438060FC07894AA0FB2
:1004D000BB1FA15ABE4FED91FC91099506C08091BA
:1004E0005D0190915E010E9426071F910F91FF9080
:1004F000EF9008951F93182F8091020183FF28C069
:1005000013FD26C086E00E9410021EC013FF1CC00F
:1005100080915901823051F40E94E30960934C01AB
:1005200070934D0180934E0190934F01809159013A
:10053000833051F40E94E3096093480170934901AC
:1005400080934A0190934B01109302011F910895EB
:100550008091020183FDF8CFD9CF1F920F920FB681
:100560000F9211242F933F934F935F936F937F9339
:100570008F939F93AF93BF93EF93FF9389B1909124
:10058000520189230E947A02FF91EF91BF91AF91AE
:100590009F918F917F916F915F914F913F912F919B
:1005A0000F900FBE0F901F9018951F93182F8091DA
:1005B000010180FFF0C010FDEEC080E00E9410023B
:1005C0001EC010FF1CC080915301823051F40E9464
:1005D000E30960934C0170934D0180934E01909319
:1005E0004F0180915301833051F40E94E3096093DD
:1005F00048017093490180934A0190934B01809187
:10060000010181FFCDC011FDCBC081E00E9410022D
:100610001EC011FF1CC080915401823051F40E9411
:10062000E30960934C0170934D0180934E019093C8
:100630004F0180915401833051F40E94E30960938B
:1006400048017093490180934A0190934B01809136
:10065000010182FFAAC012FDA8C082E00E94100220
:100660001EC012FF1CC080915501823051F40E94BF
:10067000E30960934C0170934D0180934E01909378
:100680004F0180915501833051F40E94E30960933A
:1006900048017093490180934A0190934B018091E6
:1006A000010183FF87C013FD85C083E00E94100213
:1006B0001EC013FF1CC080915601823051F40E946D
:1006C000E30960934C0170934D0180934E01909328
:1006D0004F0180915601833051F40E94E3096093E9
:1006E00048017093490180934A0190934B01809196
:1006F000010184FF64C014FD62C084E00E94100206
:100700001EC014FF1CC080915701823051F40E941A
:10071000E30960934C0170934D0180934E019093D7
:100720004F0180915701833051F40E94E309609397
:1007300048017093490180934A0190934B01809145
:10074000010185FF41C015FD3FC085E00E941002F8
:100750001EC015FF1CC080915801823051F40E94C8
:10076000E30960934C0170934D0180934E01909387
:100770004F0180915801833051F40E94E309609346
:1007800048017093490180934A0190934B01109363
:1007900001011F9108958091010180FD30CF11CF9B
:1007A0008091010181FD53CF34CF8091010182FD01
:1007B00076CF57CF8091010183FD99CF7ACF809179
:1007C000010184FDBCCF9DCF8091010185FDDFCF6C
:1007D000C0CF1F920F920FB60F9211242F933F9309
:1007E0004F935F936F937F938F939F93AF93BF9339
:1007F000EF93FF9386B19091510189230E94D50216
:10080000FF91EF91BF91AF919F918F917F916F91E8
:100810005F914F913F912F910F900FBE0F901F90BE
:1008200018951F93182F8091000181FF78C011FD4A
:1008300076C087E00E9410021EC011FF1CC080918C
:100840005A01823051F40E94E30960934C01709385
:100850004D0180934E0190934F0180915A01833056
:1008600051F40E94E3096093480170934901809319
:100870004A0190934B018091000182FF55C012FD07
:1008800053C088E00E9410021EC012FF1CC080915D
:100890005B01823051F40E94E30960934C01709334
:1008A0004D0180934E0190934F0180915B01833005
:1008B00051F40E94E30960934801709349018093C9
:1008C0004A0190934B018091000183FF32C013FDD8
:1008D00030C089E00E9410021EC012FF1CC080912F
:1008E0005C01823051F40E94E30960934C017093E3
:1008F0004D0180934E0190934F0180915C018330B4
:1009000051F40E94E3096093480170934901809378
:100910004A0190934B01109300011F91089580911B
:10092000000181FDA8CF89CF8091000182FDCBCF4E
:10093000ACCF8091000182FDEECFCFCF1F920F92FE
:100940000FB60F9211242F933F934F935F936F93A2
:100950007F938F939F93AF93BF93EF93FF9383B155
:100960009091500189230E941104FF91EF91BF9152
:10097000AF919F918F917F916F915F914F913F9137
:100980002F910F900FBE0F901F901895B22F84EAF1
:100990008093BC0020E030E004C02150304009F4D6
:1009A0006BC08091BC0087FFF8CF8AE38093BB00C7
:1009B00084E88093BC0020E030E004C02150304047
:1009C00009F45AC08091BC0087FFF8CF6093BB0048
:1009D00084E88093BC0020E030E004C02150304027
:1009E00009F44AC08091BC0087FFF8CF84E9809366
:1009F000BC0084EA8093BC0020E030E003C02150BA
:100A00003040D1F18091BC0087FFF9CF8BE3809318
:100A1000BB0084E88093BC0020E030E003C021509C
:100A2000304051F18091BC0087FFF9CFFA0160E0BE
:100A30004B2F50E041505040A4EC74E818C0862F72
:100A400090E08417950719F47093BC0002C0A0933E
:100A5000BC0020E030E003C02150304069F08091BC
:100A6000BC0087FFF9CF8091BB0081936F5F6B174C
:100A700030F384E98093BC000895DF93CF930F9205
:100A8000CDB7DEB7198262E2AE014F5F5F4F21E062
:100A90000E94C604898190E024E0969587952A9566
:100AA000E1F781700F90CF91DF910895722F84EA62
:100AB0008093BC0020E030E004C02150304009F4B5
:100AC00041C08091BC0087FFF8CF8AE38093BB00D0
:100AD00084E88093BC0020E030E003C02150304027
:100AE00089F18091BC0087FFF9CF6093BB008091B2
:100AF000BC0084688093BC0020E030E003C021503B
:100B0000304001F18091BC0087FFF9CFFA0190E0FD
:100B100014C080818093BB008091BC008468809366
:100B2000BC0020E030E003C02150304059F08091FB
:100B3000BC0087FFF9CF9F5F3196971750F384E988
:100B40008093BC000895EF92FF920F931F93DF9361
:100B5000CF93CDB7DEB728970FB6F894DEBF0FBEA0
:100B6000CDBF7C016AE28E010F5F1F4FA80121E01B
:100B70000E94C60489818E7F8983C7016AE2A80129
:100B800021E00E94560580E18983C7016FE0A8013A
:100B900021E00E945605C70161E2A80128E00E94F9
:100BA000C60481E4898380E28B8389E18E8382E3BA
:100BB0008F83C70161E2A80128E00E945605C701A2
:100BC0006AE2A80121E00E94C604898181608983CC
:100BD000C7016AE2A80121E00E94560528960FB6D7
:100BE000F894DEBF0FBECDBFCF91DF911F910F9163
:100BF000FF90EF900895DF92EF92FF920F931F9373
:100C0000DF93CF9300D0CDB7DEB77C0188E480932B
:100C1000B80080E48983C7016BE28E010F5F1F4F2C
:100C2000A80121E00E94560532E0D32ED982C701E7
:100C30006EE0A80121E00E94560584E08983DA82F3
:100C4000C7016AE2A80122E00E94560585E0898377
:100C5000C7016AE2A80121E00E9456050F900F909B
:100C6000CF91DF911F910F91FF90EF90DF9008954A
:100C7000FC016115710521F06130710531F513C07A
:100C80002085332727FD3095432F532F8081918175
:100C9000A281B381820F931FA41FB51F808391830C
:100CA000A283B38308952185332727FD3095432FF1
:100CB000532F84819581A681B781820F931FA41F32
:100CC000B51F84839583A683B78308951F93162F3A
:100CD00087E060E00E94CB0A88E061E00E94CB0AD6
:100CE00086E0612F70E00E942C0AE0917301F09180
:100CF0007401309711F08FEF81871F9108951F9332
:100D0000162F87E061E00E94CB0A88E060E00E9435
:100D1000CB0A86E0612F70E00E942C0AE0917301FB
:100D2000F0917401309711F081E081871F9108954F
:100D30001F93162F82E060E00E94CB0A84E061E0FE
:100D40000E94CB0A85E0612F70E00E942C0AE0919E
:100D50007301F0917401309711F08FEF80871F912C
:100D600008951F93162F82E061E00E94CB0A84E071
:100D700060E00E94CB0A85E0612F70E00E942C0A9F
:100D8000E0917301F0917401309711F081E0808758
:100D90001F910895EF92FF920F931F93CF93DF93CC
:100DA0007C01EB01161617063CF40E94B106C70140
:100DB0006C2F0E947F060BC000271127061B170B04
:100DC000602F0E949806C701602F0E946606DF917F
:100DD000CF911F910F91FF90EF90089587E060E011
:100DE0000E94CB0A88E060E00E94CB0A86E060E0C7
:100DF00070E00E942C0A089582E060E00E94CB0A15
:100E000084E060E00E94CB0A85E060E070E00E9430
:100E10002C0A08950F931F938C010E94FC06C801B1
:100E20000E94EE061F910F91089587E061E00E94F5
:100E30008C0A88E061E00E948C0A82E061E00E94F6
:100E40008C0A84E061E00E948C0A08951F93CF937E
:100E5000DF93FC018389948920E001972FEF8F3F76
:100E60009207D9F7C589D689A685B785758560E0CB
:100E700031E040E050E010E0CE01212F01972FEF4C
:100E80008F3F9207D9F78C91872311F0632B03C012
:100E9000832F80956823330F4F5F5F4F4830510594
:100EA00059F78789908D20E001972FEF8F3F9207A8
:100EB000D9F78091B5012091B60190E001968F732A
:100EC000907030E08217930779F0E091B501F0E07F
:100ED000EB58FE4F60838091B50190E001968F73CF
:100EE00090708093B50103C0838D8160838FDF9103
:100EF000CF911F910895CF92DF92EF92FF920F93BF
:100F00001F93CF93DF93EC017A018B011A8E198E18
:100F1000188E1F8A1E8A1D8A1C8A1B8A20E030E0D8
:100F20006901CC0CDD1CC20ED31EB601660F771F03
:100F3000660F771FAB0148595F4FFA018591959174
:100F4000A591B4918E159F05A007B107E9F4FB01A7
:100F5000E459FF4F859194919C8B8B8BFB01E25957
:100F6000FF4F859194919E8B8D8BFB01E059FF4F34
:100F700085919491988F8F8BFB01EE58FF4F85914F
:100F800094919A8F898F06C02F5F3F4F2D30310586
:100F900009F0C6CF8F89988D892B09F449C04C85FB
:100FA000463108F03DC090916800483010F484E06C
:100FB00005C04E3010F082E001C081E0892B8093A3
:100FC0006800483028F4EDE6F0E0ADE6B0E00BC094
:100FD0004E3028F0ECE6F0E0ACE6B0E004C0EBE622
:100FE000F0E0ABE6B0E05081483040F481E090E0C2
:100FF00002C0880F991F4A95E2F710C0242F30E0F5
:101000004E3018F42850304002C02E50304081E05D
:1010100090E002C0880F991F2A95E2F7852B8C93E8
:10102000898D9A8D20E001972FEF8F3F9207D9F796
:10103000DF91CF911F910F91FF90EF90DF90CF90B4
:101040000895FC014485463180F5483028F4EDE6EA
:10105000F0E0ADE6B0E00BC04E3028F4EBE6F0E097
:10106000ABE6B0E004C0ECE6F0E0ACE6B0E0508106
:10107000483040F481E090E002C0880F991F4A9503
:10108000E2F710C0242F30E04E3018F428503040E2
:1010900002C02E50304081E090E002C0880F991FBE
:1010A0002A95E2F7809585238C930895FC0187E0CB
:1010B00091E091838083CF010E942108089590914F
:1010C000B6018091B501981719F42FEF3FEF0FC0CB
:1010D000E091B601F0E0EB58FE4F20818091B6011F
:1010E00090E001968F7390708093B60130E0C90153
:1010F00008958091B5012091B60190E0805C9F4FEA
:10110000821B910960E470E00E94690D08950F93BD
:101110001F93DC0159968D919C915A97892B49F424
:1011200081E090E013969C938E93129720E030E03C
:1011300059C01FB7F8945196ED91FC915297908148
:1011400050968C91509780958923808359968D91E4
:101150009C915A97059620E001972FEF8F3F9207B9
:10116000D9F731E040E050E070E000E0832F90E0FC
:10117000862397235196ED91FC91529750962C918E
:101180005097892B21F08081822B808304C080813D
:1011900020952823208359968D919C915A97202F32
:1011A00001972FEF8F3F9207D9F7330F4F5F5F4FB4
:1011B00048305105D9F65196ED91FC9152978081B6
:1011C00050969C915097892B80831FBF59968D9183
:1011D0009C915A9720E001972FEF8F3F9207D9F704
:1011E00021E030E0C9011F910F9108959FB7F89455
:1011F0001092B5018091B5018093B6019FBF08950B
:101200009091B6018091B501981719F42FEF3FEF37
:101210000AC0E091B601F0E0EB58FE4F8081282F24
:10122000332727FD3095C9010895FF920F931F932F
:101230008C01F62E862F60E00E948C0AD8011C9645
:10124000FC921C978F2D90E0FC01EA5CFE4FE4912C
:101250001D96EC931D978E5D9E4FFC016491E62FC9
:10126000F0E0EE0FFF1FE85EFE4F859194911F9610
:101270009C938E931E971F910F91FF900895FF925C
:101280000F931F938C01F62E862F61E00E948C0A2B
:101290008F2D61E00E94CB0A8F2D90E0FC01EA5C6B
:1012A000FE4FE491D8015096EC9350978E5D9E4F7F
:1012B000FC016491E62FF0E0EE0FFF1FE25FFE4FAE
:1012C0008591949152969C938E9351971F910F9173
:1012D000FF9008950F931F938C01FC0113821282DB
:1012E00088EE93E0A0E0B0E084839583A683B78383
:1012F00087E091E091838083148A138A168A158A85
:10130000108E178A128E118E838D8E7F838F8FE0C1
:1013100090E064E00E94390110935E0100935D014A
:10132000C8016EE00E943F09C8016FE00E941509E4
:101330001F910F9108951F920F920FB60F921124D3
:101340002F933F938F939F93AF93BF938091BB0154
:101350009091BC01A091BD01B091BE013091BF013F
:101360000196A11DB11D232F2D5F2D3720F02D5784
:101370000196A11DB11D2093BF018093BB019093E5
:10138000BC01A093BD01B093BE018091B7019091C3
:10139000B801A091B901B091BA010196A11DB11D8A
:1013A0008093B7019093B801A093B901B093BA01AB
:1013B000BF91AF919F918F913F912F910F900FBE51
:1013C0000F901F9018958FB7F8942091BB01309122
:1013D000BC014091BD015091BE018FBFB901CA014E
:1013E0000895789484B5826084BD84B5816084BD9D
:1013F00085B5826085BD85B5816085BDEEE6F0E08E
:10140000808181608083E1E8F0E0108280818260E9
:101410008083808181608083E0E8F0E0808181606A
:101420008083E1EBF0E0808184608083E0EBF0E09A
:10143000808181608083EAE7F0E08081846080833E
:1014400080818260808380818160808380818068E8
:1014500080831092C10008951F93CF93DF93182FBC
:10146000EB0161E00E948C0A209709F44AC0CF3F4B
:10147000D10509F449C0E12FF0E0E65BFE4F84910D
:101480008330C1F0843028F4813051F08230B1F5DE
:101490000CC0863019F1873049F1843079F514C0D9
:1014A00084B5806884BDC7BD33C084B5806284BD07
:1014B000C8BD2EC080918000806880938000D0934A
:1014C0008900C093880024C080918000806280934E
:1014D0008000D0938B00C0938A001AC08091B00026
:1014E00080688093B000C093B30012C08091B000B8
:1014F00080628093B000C093B4000AC0C038D105A8
:101500001CF4812F60E002C0812F61E00E94CB0AB1
:10151000DF91CF911F910895CF93DF93482F50E033
:10152000CA018A5C9E4FFC0134914E5D5E4FFA0108
:101530008491882369F190E0880F991FFC01EC5F8A
:10154000FE4FA591B491FC01E25FFE4FC591D4918D
:10155000662351F42FB7F8948C91932F909589239B
:101560008C93888189230BC0623061F42FB7F89483
:101570008C91932F909589238C938881832B8883DA
:101580002FBF06C09FB7F8948C91832B8C939FBF7D
:10159000DF91CF910895482F50E0CA01865B9E4F9E
:1015A000FC012491CA018A5C9E4FFC0194914E5D1E
:1015B0005E4FFA013491332309F440C0222351F1E4
:1015C000233071F0243028F42130A1F0223011F5BD
:1015D00014C02630B1F02730C1F02430D9F404C053
:1015E000809180008F7703C0809180008F7D8093F1
:1015F000800010C084B58F7702C084B58F7D84BD14
:1016000009C08091B0008F7703C08091B0008F7DBA
:101610008093B000E32FF0E0EE0FFF1FE25FFE4F7C
:10162000A591B4912FB7F894662321F48C919095ED
:10163000892302C08C91892B8C932FBF0895089524
:101640001F920F920FB60F9211242F933F934F9337
:101650008F939F93EF93FF938091C00082FD1DC0F5
:101660004091C60020910002309101022F5F3F4F50
:101670002F7330708091020290910302281739076E
:1016800071F0E0910002F0910102E054FE4F4083BE
:10169000309301022093000202C08091C600FF91A6
:1016A000EF919F918F914F913F912F910F900FBE8E
:1016B0000F901F901895E0915402F0915502E05C54
:1016C000FF4F8191919120813181821B930B8F7308
:1016D0009070892B11F00E941F0B08951F920F929A
:1016E0000FB60F9211242F933F938F939F93EF93F5
:1016F000FF932091440230914502809146029091DF
:1017000047022817390731F48091C1008F7D8093FB
:10171000C10014C0E0914602F0914702EC5FFD4F1A
:101720002081809146029091470201968F739070BC
:1017300090934702809346022093C600FF91EF9159
:101740009F918F913F912F910F900FBE0F901F90FF
:101750001895AF92BF92DF92EF92FF920F931F9373
:10176000CF93DF93EC017A018B01DD24403081EED1
:10177000580780E0680780E0780711F0DD24D394F3
:1017800091E0A92EB12CEC89FD89DD2069F0C5011D
:1017900008A002C0880F991F0A94E2F7808360E0D6
:1017A00079E08DE390E005C0108260E874E88EE196
:1017B00090E0A80197010E947C0D215030404040EC
:1017C0005040569547953795279580E1203038074A
:1017D00020F0DD2011F0DD24D6CFE889F9893083AF
:1017E000EA89FB89208319A2EE89FF89408121E0E3
:1017F00030E0C9010C8C02C0880F991F0A94E2F7EF
:10180000482B4083EE89FF894081C9010D8C02C0BD
:10181000880F991F0A94E2F7482B4083EE89FF89CD
:101820004081C9010E8C02C0880F991F0A94E2F70B
:10183000482B4083EE89FF8980810F8C02C0220FE4
:10184000331F0A94E2F7209528232083DF91CF915C
:101850001F910F91FF90EF90DF90BF90AF90089590
:10186000DC011C96ED91FC911D97E05CFF4F2191EE
:10187000319180819181281B390B2F733070C90100
:101880000895DC011C96ED91FC911D97E05CFF4FE3
:1018900020813181E054F040DF01AE5BBF4F8D917C
:1018A0009C9111972817390719F42FEF3FEF07C0C4
:1018B0008D919C91E80FF91F8081282F30E0C9019C
:1018C0000895DC011C96ED91FC911D97E05CFF4FA3
:1018D00020813181E054F040DF01AE5BBF4F8D913C
:1018E0009C9111972817390719F42FEF3FEF10C07B
:1018F0008D919C911197E80FF91F20818D919C91FA
:10190000119701968F73907011969C938E9330E08F
:10191000C9010895DC0191968C919197882339F043
:101920005496ED91FC915597808186FFF9CF919661
:101930001C920895CF93DF93EC01EE85FF85E05C68
:10194000FF4F20813181E054F0402F5F3F4F2F73D4
:101950003070DF01AE5BBF4F8D919C9111972817BE
:101960003907D1F3E05CFF4F80819181E054F04072
:10197000E80FF91F6083EE85FF85E05CFF4F318340
:101980002083EE89FF89208181E090E00F8C02C0E6
:10199000880F991F0A94E2F7282B208381E089A3FE
:1019A000EC89FD8980818064808381E090E0DF9113
:1019B000CF91089510924B0210924A0288EE93E064
:1019C000A0E0B0E080934C0290934D02A0934E02B1
:1019D000B0934F0287E191E09093490280934802CF
:1019E00080EC91E0909355028093540284E092E061
:1019F000909357028093560285EC90E090935902A1
:101A00008093580284EC90E090935B0280935A029A
:101A100080EC90E090935D0280935C0281EC90E01A
:101A200090935F0280935E0282EC90E0909361025B
:101A30008093600286EC90E0909363028093620250
:101A400084E08093640283E08093650287E0809362
:101A5000660285E08093670281E0809368020895C2
:101A6000CF93DF930E94F1090E942401CBE5DBE0D4
:101A70000E9407012097E1F30E945B0BF9CFCF9200
:101A8000DF92EF92FF920F931F93CF93DF937C012E
:101A90006B018A01C0E0D0E00FC0D6016D916D01ED
:101AA000D701ED91FC910190F081E02DC7010995DE
:101AB000C80FD91F015010400115110571F7CE0153
:101AC000DF91CF911F910F91FF90EF90DF90CF901A
:101AD000089597FB092E07260AD077FD04D02ED053
:101AE00006D000201AF4709561957F4F0895F6F79F
:101AF000909581959F4F0895A1E21A2EAA1BBB1BBA
:101B0000FD010DC0AA1FBB1FEE1FFF1FA217B307C9
:101B1000E407F50720F0A21BB30BE40BF50B661FDF
:101B2000771F881F991F1A9469F7609570958095A3
:101B300090959B01AC01BD01CF010895AA1BBB1B71
:101B400051E107C0AA1FBB1FA617B70710F0A61BBD
:101B5000B70B881F991F5A95A9F780959095BC01DE
:101B6000CD010895EE0FFF1F0590F491E02D09942B
:101B700011E0C2E6D1E004C0FE010E94B40D22963D
:0A1B8000C436D107C9F7F894FFCF6F
:101B8A000E3F080000000087083F0D79085F080033
:101B9A0009F608000000009A0C3F0D300C610C4158
:041BAA000C8A0C0095
:00000001FF
